:020000041102E7
:1000000003B40148019001BDADAE000003B4014846
:10001000019001BD456B010003B40148019001BD91
:100020000189000003B40148019001BDC53F0000F3
:1000300003B40148019001BDE94C010003B401483B
:10004000019001BDC95C010003B40148019001BDEC
:10005000CD4C010003B40148019001BD618900004D
:1000600003B40148019001BD154D010003B40148DE
:10007000019001BDF54E010003B40148019001BD9E
:10008000434D010003B40148019001BD2526000045
:1000900003B40148019001BD8B52010003B4014833
:1000A000019001BDB352010003B40148019001BDAC
:1000B0000D52010003B40148019001BDC94A01007D
:1000C00003B40148019001BD691F000003B4014859
:1000D000019001BD5D17000003B40148019001BD0E
:1000E0003D4B010003B40148019001BD595201008C
:1000F00003B40148019001BD5125000003B401483B
:10010000019001BD014C010003B40148019001BD03
:10011000594F010003B40148019001BD1D4B01007E
:1001200003B40148019001BD8D12000003B40148E1
:10013000019001BD4D1F000003B40148019001BDB5
:100140005522000003B40148019001BDDD520100B9
:1001500003B40148019001BD1D4D010003B40148E5
:10016000019001BD810E000003B40148019001BD62
:10017000017F000003B40148019001BDE1170000B8
:1001800003B40148019001BD7918000003B401488F
:10019000019001BDD949010003B40148019001BD9E
:1001A000E928000003B40148019001BD5549010050
:1001B00003B40148019001BD4551010003B4014859
:1001C000019001BDC926000003B40148019001BDA2
:1001D000F94C010003B40148019001BDC5210000A4
:1001E00003B40148019001BD291C000003B401487B
:1001F000019001BD851F000003B40148019001BDBD
:10020000090E000003B40148019001BD114701002F
:1002100003B40148019001BDB30E000003B40148CE
:10022000019001BDCD3AFF1F03B40148019001BD0B
:10023000613DFF1F03B40148019001BD3F21FF1F35
:1002400003B40148019001BD1921FF1F03B4014807
:10025000019001BDA946010003B40148019001BD10
:10026000B13E000003B40148019001BD392CFF1FCD
:1002700003B40148019001BD4D2CFF1F03B4014898
:10028000019001BDC90E000003B40148019001BDF9
:10029000055E000003B40148019001BDE54800007F
:1002A00003B40148019001BD2951010003B4014884
:1002B000019001BDD91B000003B40148019001BDAC
:1002C000C121FF1F03B40148019001BDE921FF1FB7
:1002D00003B40148019001BD51470100F8B5D4496C
:1002E000D24A002004464A608300401CD450FF28B4
:1002F000FADD4868CF4A014680318A606E22C262C8
:10030000CD4A1278002A01D07F22C2620A220265F9
:10031000CA4A13788363CA4BC36115781023022D30
:1003200008D01578012D05D01578032D02D0157849
:10033000042D00D10362C34D45611925AD018561CE
:100340003725CD6036272826C7630825466405640F
:100350004F6032270F603B27CF634127CF64392797
:100360004031E0C132274F6002274F6142270831F8
:10037000E0C11E274F60CE608D6005264E6142268B
:100380000E615A2660390E614D613C258D61AF25A5
:10039000ED000560AC4D05631578022D09D0157888
:1003A000012D08D01578032D07D01578042D06D01F
:1003B00007E0152504E0436003E00E2500E00C256E
:1003C0004560FF252D358560C560FF25F535056144
:1003D0009E4D85647D25ED009D4ECD67C6644562CA
:1003E0009C4D85627325C565062545658565C51DDA
:1003F0000826F93502272E6047664B27FF008766DF
:100400000927C766944F07674667BE108467C667AB
:10041000924F8F4E3E601678022E09D01678012E2C
:100420000AD01678032E0BD01278042A0CD00EE0D6
:100430001A22CA61212205E01422CA61182201E0B1
:100440001322CB610A6202E00E220B62CA617F4A6C
:100450008A627D22D2008A6764224A620522CA62C9
:1004600002220A63C8228C634A63382169607C498E
:1004700029647C49A9614B21C900E96174497B4A1F
:10048000643929627D2109016962EC661E212C67AD
:10049000A9667149A965E965891029666964696772
:1004A0007149EA67A9677249FF30813006C001606F
:1004B000FF21F531416081606F486E495B4A816080
:1004C0006E49803A11616C496D4A80318A626D4A89
:1004D000CA626D4A82616D4AC2626D4A02636648B1
:1004E0006C4A403842636C4AC2636C4ACA616C49C8
:1004F000816361496B48403188616C496A48886012
:100500005D486B4A803842606A4A42636A4A0A62BE
:100510006A49816058496A48C039C860FFF770FD70
:100520000120FFF773FDF8BDF3B50746654881B0BC
:10053000C169654A1140FF310931C161002613E0EC
:1005400000252C461120FFF767FD5E48406A8007B2
:10055000800F610088402843641CE4B20546102CDB
:10056000F0D301C7761CF6B202988642E8D3FEBDEE
:1005700010B52F4C607800280AD104215348FFF7AA
:10058000D3FF524804211030FFF7CEFF01206070E6
:1005900010BDF0B500248BB00D460646102902D9D7
:1005A00001200BB0F0BDFFF7E3FF484900200A5CD3
:1005B000401C1419C0B21028F9D3002C03D0102D00
:1005C00003D90B20EDE70E20EBE741483F4C002319
:1005D000006802A91034E25CC75C7A40CA545B1C14
:1005E000DBB2102BF7D306AA3848FFF71BFD102DFE
:1005F00000D910252A4606A93046FFF719FDFFF756
:100600001DFD216840182060FFF718FD6168401843
:100610006060FFF713FDA1684018A060FFF70EFDB2
:10062000E1684018E0600020BBE700000004FF1F05
:100630009454FF1F2077FF1F9451FF1F4A0AFF1F8A
:100640003A07000080C3C9019A02000050C30000AD
:10065000280A00006A180000204E0000F009FF1F61
:100660000040001168100000DC05000040420F004F
:10067000102700001142FF1F0001FF1FA925FF1FC7
:10068000C946FF1FB549FF1F1122FF1FA523FF1FEA
:100690002D22FF1FDD32FF1F3532FF1F714FFF1F5D
:1006A000954DFF1F9921FF1F6529FF1F0002FF1FA6
:1006B000893EFF1F6540FF1FA93FFF1F453EFF1FEB
:1006C0009529FF1F40F0004000FEFEFFA471FF1FB0
:1006D000B454FF1F0A7802708A7842704A88120A5E
:1006E00082700979C170042070470A780270098805
:1006F000090A41700220704710B500220EE09300F5
:100700005B189C7804705C88521C240A44701C7925
:1007100084709B88D2B21B0AC370001D0B78934271
:10072000EDD81806800D10BDF8B50D46064649787F
:10073000012031700024761C16E06978012917D059
:100740001221614349198A7832704A88871C120A3B
:100750007270B61C10223046091DFFF769FC103775
:10076000B8B21036641CE4B22978A142E5D8F8BDCD
:10077000A10049198A7832704A88871C120A72705F
:10078000B61C02223046091DFFF752FCBF1CB8B24E
:10079000B61CE7E710B50C46097801702188090AF4
:1007A00041706288211D801CFFF742FC6088801C1C
:1007B00080B210BD10B50C46097801702188090A75
:1007C0004170A17881706188090AC170A288A11D59
:1007D000001DFFF72DFCA088001D80B210BD10B5D4
:1007E0000C460A88891CFFF723FC208810BD10B531
:1007F0000B788A7802705343DCB22246401C091DF4
:10080000FFF716FC601C10BD10B50B788A780270DB
:100810005343DCB22246401C091DFFF709FC601C53
:1008200010BD10B50C460A88891CFFF701FC208812
:1008300010BD10B50C460A88891CFFF7F9FB20880B
:1008400010BD7FB515460446022901D0102903D1F9
:10085000022B04D0102B02D0002004B070BD9942AE
:1008600002D10A46294607E01029694607D000F060
:100870000DF8102269462846FFF7E6FBEDE7104623
:1008800000F004F8102269462046F5E770B50C46E2
:1008900005000CD0002C0AD0102206492046FFF794
:1008A000C7FB2878207368786073012070BD002032
:1008B00070BD0000C46F021110B50B460122024941
:1008C00001F032FD10BD0000D506021170B50646DC
:1008D00008880C46172812D30B46032209493046D4
:1008E00001F022FD050008D10749208809888842C7
:1008F00000D20146304600F0B7F9284670BD02200C
:1009000070BD0000EB060211C254FF1F10B500239A
:100910001922194601F008FD10BD000010B50A7833
:10092000002A05D00B460722024901F0FDFC10BD4C
:10093000022010BDF906021110B54A78012A01D033
:10094000022A08D10A78002A05D00B46052203495D
:1009500001F0EAFC10BD022010BD000029070211C1
:1009600001494000085A7047C054FF1F10B50B469C
:100970001B22024901F0D8FC10BD000095070211AE
:100980000149172008807047C054FF1F0098022BB0
:1009900001D0042070471178527812028918018022
:1009A000002070470098012B01D004207047117877
:1009B00001700020704770B5049C1E461546062B3A
:1009C0001BD369782878090240182080E978A87834
:1009D00009024018608002222271291D601DFFF764
:1009E00027FBB61FB2B22281F02A06D82046A91DE5
:1009F0000A30FFF71DFB002070BD042070BD009879
:100A0000042B01D004207047537811781B02C918B9
:100A100001809178D27812028918418000207047B5
:100A2000F8B584890D460646002C26D0B2681778A2
:100A3000380620D50C2C20D90C3CA4B210190090FB
:100A400001217088234601F0E9FB002811D0022023
:100A500028707806C00F6870B806800EA870641EF3
:100A60002004000CA88001D0B068401CA8600020C1
:100A7000F8BD0120ECE70020EAE70120F8BD10B541
:100A800002981146042B14D34C780A7824021219C8
:100A90000280CC788A782402121942801B1F9AB2F5
:100AA0008280F22A05D8801D091DFFF7C1FA0020B7
:100AB00010BD042010BD0098042B01D00420704705
:100AC000537811781B02C91801809178D2781202EC
:100AD000891841800020704710B502981146062BF6
:100AE00003D0142B03D0042010BD022200E01022FA
:100AF00002714B780A781B02D2180280CB788A7870
:100B00001B02D21842800279401D091DFFF790FA9E
:100B1000002010BD30B5039CD80718D1D805010EB0
:100B2000022914D30B488088814210D8F620015541
:100B3000002008E0557813782D025B194500401C11
:100B40006353C0B2921C8842F4D3002030BD04200D
:100B500030BD0000BA54FF1F0098022B01D00420C2
:100B6000704711785278120289180180002070476E
:100B700070B5144602460498022B18D3667825787F
:100B80003602AD1905800546E0352A766976002AD9
:100B90000BD0E8219B1E9AB242808A4207D8A11C42
:100BA000001DFFF745FA002070BDF421F2E7042094
:100BB00070BD000010B50B461722024901F0B4FBCE
:100BC00010BD0000B507021110B50B460D220249F9
:100BD00001F0AAFB10BD0000DF07021110B50A7872
:100BE000002A05D00B461122024901F09DFB10BDE1
:100BF000022010BDEF07021110B50A78002A05D0B7
:100C00000B460922024901F08FFB10BD022010BDE6
:100C10000908021110B50B460F22024901F084FBAE
:100C200010BD00002308021110B50B460B2202492B
:100C300001F07AFB10BD000033080211F72800D93B
:100C4000F720084A01461080401EC3179B0F181852
:100C50008003000C5080491EC80F4018C003000CD0
:100C600090807047BA54FF1F044A1288914203D8FB
:100C7000024A4000921D115270470000BA54FF1FF3
:100C800010B500231322194601F04EFB10BD0000E1
:100C900070B50C460146032000020A1A00253448AC
:100CA0001300FFF7D7F91D1012151C1F2326282C3F
:100CB000303234383A3C3E40424446484A4E505224
:100CC0005A5456585A00C07911E01022294902E0BE
:100CD0002849102210312046FFF7AAF945E0C06AE2
:100CE000206042E0224906223C31F4E7007820707F
:100CF0003BE0808936E01E4942784231EBE71D49EE
:100D000082781F39E7E7007AF1E7407AEFE7184980
:100D100006223031DFE7807AE9E7C07AE7E7C08969
:100D200020E0808A1EE0C0781CE0C08A1AE0008BB8
:100D300018E0408B16E0808B14E00D490622363116
:100D4000C9E7C08B0EE0008C0CE0408C0AE0807993
:100D5000CDE7008A06E0408A04E0272904D208464D
:100D600000F052FA208000E00225284670BD000005
:100D70006052FF1F456CFF1F70B50E4C002560715F
:100D8000A571691EE18100F06FFB0420E071102263
:100D900000210948FFF764F90748102200211030AC
:100DA000FFF75EF9E562257265720720A072E572B1
:100DB00070BD00006052FF1F456CFF1FFEB53B4D2C
:100DC0000C4608040CD56879FFF750F9050004D0EB
:100DD00002F038F82846FFF74FF90120C00360E021
:100DE000600403D5012080034840FEBD2F48E10781
:100DF0000126807900292AD02978002920D00528C9
:100E000021D0297A68460170697A41702749062203
:100E10003031801CFFF70CF9A97A68460172E97A33
:100E200041726946687900F00BFA002808D0072063
:100E3000A871696A002903D00968002900D0884791
:100E400020467040FEBD032069460870E4E7A10714
:100E50000DD5052809D1E889FFF714F9AA8A002AD7
:100E600003D002216879FFF713F9022019E0600727
:100E700004D5002002F026F8042012E0200712D545
:100E80002879012802D002280AD107E00096AB8B0E
:100E90006A8B298BE88A00F00BF801E000F05AF920
:100EA00008206040FEBD0020FEBD00006052FF1F14
:100EB000F8B5134C069EA579052D01D01420F8BD78
:100EC000104F851FBD4219D2062917D3BD1DA94257
:100ED00014D2FF27F537BA4210D20A2B0ED3AB42F9
:100EE0000CD2E08221836283A383304601F0EAFFC3
:100EF00004216079FFF7D2F80020F8BD1820F8BD72
:100F00006052FF1F7A0C0000F7B50D46804900982B
:100F1000164642187F4F00247879B9791300FFF7FD
:100F200099F8190E141BE92040455970777E888F77
:100F3000E996A2A9B4BFC8E9E9E9E9D3E900102D0F
:100F400076D11022314674486FE0102D70D172486E
:100F500010223146103068E0042D69D13068F86203
:100F6000CEE0012D64D13B7832783A70002B0AD064
:100F7000002A07D1022903D0062901D0042901D172
:100F800000F018F9BCE0002A0AD0012905D0032995
:100F900003D0052901D0042902D10121FFF784F8EB
:100FA000AEE0022D44D13088B881A9E01F2D3FD892
:100FB00058481F2200214230FFF752F855482A4670
:100FC00031464230FFF734F8524B7D7042332A46A7
:100FD000012112E01F2D7CD84F481F2200211F380D
:100FE000FFF73EF84C482A4631461F38FFF720F8F5
:100FF000494B2A461F3BBD700021787900F0AAFAC0
:1010000083E0012D65D13078042862D8387277E00A
:10101000012D5ED1307803285BD8787270E0062D00
:1010200057D13C48062231463030FFF701F867E0DF
:101030004FE0012D4DD1307807284AD8B8725FE0D3
:10104000012D46D13078032843D8F87258E0022D9C
:101050003FD13288BA82002A52D0052950D10221CC
:10106000FFF716F84CE0012D33D13078012830D845
:10107000F87045E03088022D2BD1062829D319219C
:10108000C901884225D8F8823AE03088022D20D163
:1010900006281ED31921C90188421AD838832FE0A7
:1010A0003088022D15D1FF21F531884211D2788385
:1010B00026E03088022D0CD10A280AD31921C90153
:1010C000884206D8B8831BE03178012D01D101296F
:1010D00001D0182414E00821FEF7ECFF002801D00D
:1010E00016240DE0002001F0EDFE04217879FEF7D2
:1010F000D5FF05E00098272801D2022D02D0022456
:101100002046FEBD318800F0D5F90446F8E700001E
:10111000FFFCFFFF6052FF1F456CFF1F1CB50B4C0F
:10112000A179002901D011201CBD002800D06062E7
:10113000064907482C31034601910090103B0022DC
:10114000E179607900F016F800201CBD6052FF1FA5
:10115000556CFF1F10B506488179052901D0122072
:1011600010BDC1891322407900F0B4F910BD000010
:101170006052FF1FF8B51D460224069F079E0B0014
:10118000FEF768FF0D150815150815151515151529
:101190001508150000F0B8F8040008D132463946A9
:1011A000284600F067F900F0CBF801F027F8204658
:1011B000F8BD000070B5104C2168002904D00978F2
:1011C000814203D0032070BD122070BD0B4D02215F
:1011D0002878FEF763FF0A48002646800421287815
:1011E000FEF75CFF07480680216803204870002056
:1011F000FEF766FF70BD00008C55FF1F4D55FF1FA9
:101200003055FF1FCA54FF1F272803D20249400050
:10121000085A704701487047D254FF1FFFFF000073
:1012200010B5064C607003F0B5FF6078FEF74EFF16
:101230000521607800F0BCFE10BD00004C55FF1F7A
:1012400070B5284E054630680C46002801D01120A4
:1012500070BD254801780520014216D023488068DA
:10126000002805D00078002802D0C80706D101E088
:10127000102070BD00F044F8002808D02078032822
:1012800005D0022803D0002801D0122070BD0C2008
:10129000FEF722FF3060002820D005700021417049
:1012A0000A222146801CFEF7C3FE01F0EFFE040077
:1012B00002D001F0FBF812E00D48007803280ED1AF
:1012C0001D20FFF7A1FF0B490028088007D00B481D
:1012D000094A04210078FEF705FF00E013242046A8
:1012E00070BD00008C55FF1FC754FF1F3055FF1FF6
:1012F000C854FF1FCA54FF1F60EA00004D55FF1F6E
:1013000010B503F065FF10BD70B50C4605461C22F4
:1013100000210948FEF7A4FE084805704470FEF756
:10132000E7FE0549002803D000200870122070BD98
:1013300001220A7070BD0000D471FF1FC654FF1F48
:1013400070B50F4C0025A068002802D0FEF7D6FE2D
:10135000A560E068002802D0FEF7D0FEE5600948ED
:1013600005210078084206D00548103001F070FCD5
:1013700001F03EF870BD002001F06AFC002070BD55
:101380003055FF1FC754FF1FFEB5344D0C460804EF
:1013900019D56878FEF76AFE0121C9034C4006465C
:1013A00000280ED001F074FB002807D12878FF2810
:1013B00004D03146FEF7A8FE002802D03046FEF7E2
:1013C0005BFE2046FEBDE007012700280AD0A86882
:1013D000002804D04168002901D000208847204619
:1013E0007840FEBDA00709D56868002804D0416890
:1013F000002901D00120884702202AE060072AD571
:10140000174E308800281FD0401E0004000C30808A
:101410001ED101F0BDF8002809D012480770686895
:10142000002804D04168002901D00120884701F03C
:1014300089F8694600F03CFE684601F013FB1D2068
:10144000FFF7E2FE308003E004216878FEF726FE15
:1014500004206040FEBD0020FEBD00004C55FF1F73
:10146000CA54FF1FC954FF1F01490870704700008C
:101470004C55FF1F70B50E4C0B46261D07C6054682
:10148000102200211846FEF745FE012803D1102145
:10149000A06804F0FFFA102200212846FEF73AFE69
:1014A000012803D11021606804F0F4FA70BD000037
:1014B000D471FF1F272807D2044A914204D0044A5E
:1014C000400011520020704702207047FFFF0000CB
:1014D000D254FF1FF8B50D4617461D4906461B4A54
:1014E0001224C868954208D100282DD00268002A2D
:1014F0002AD029463046904723E0144A521C954290
:1015000013D1002807D00268002A04D029463046AB
:101510009047040005D03946304600F043FF0400F0
:1015200012D10B48067047700EE0284603F002FE09
:10153000002809D00078B04205D139462846FEF788
:10154000EFFD044600E003242046F8BDFEFF000046
:101550002055FF1FF8B50E4601461948154600787C
:1015600005221F46104028D0304326D01548012EB2
:101570001BD0C468002C20D01F2D18D8002D01D0FE
:10158000002F14D001701F220021601CFEF768FD9F
:101590002A463946601CFEF74BFD28462570002E72
:1015A00007D0611CFEF7C2FDF8BD8468E2E70220A7
:1015B000F8BD611CFEF7C0FDF8BD1220F8BD0000AB
:1015C000C754FF1F3055FF1F014610B50020C90743
:1015D00004D0034A0421034800F0A6F910BD00001E
:1015E000546F0211E452FF1F70B50F4D0F4CA870DD
:1015F00029461831204600F01DF8002128460B46E8
:101600001030CA0084521218491C09065360090E92
:10161000F7D0012002F01AFCA87800F023FB044860
:1016200003F0E8FD70BD0000C452FF1FFFFF000083
:101630008536021170B50A4C0025A04209D1002060
:1016400082008C525218401CC0B295700228F7D309
:1016500070BD01F0E6FF0028FAD00480857070BDEF
:10166000FFFF0000F8B50E460746069900240798CC
:10167000002902D00B242046F8BD022B01D00D24F6
:10168000F9E711785278120289188DB22946814300
:1016900001D08024EFE73846F16800F03DF9A84218
:1016A000E9D02A463846F16800F0A8F90400E2D1F2
:1016B00071892A46384600F065F9DCE770B50C46BA
:1016C000080412D50A488078FEF7D0FC050008D03F
:1016D0002878B02802D1284602F0C0F82846FEF744
:1016E000CBFC0120C003604070BD002070BD000035
:1016F000C452FF1FFFB587B0087A0025109E1C4614
:101700000F46C0060DD5099801F084FF030006D0EE
:101710000A22394607989847050035D101E00E2581
:1017200032E0387802281DD1786829220178407883
:1017300012020002081880B2811A90427ED009DCA1
:101740007249401A23D0012821D0022851D0032801
:1017500008D125E0012972D0022971D003296DD06A
:1017600004296ED0099801F07DFF0028D7D00568C4
:10177000002DD4D012991198019100903346224641
:1017800039460798A847054628460BB0F0BD119882
:10179000002873D1F868017831800278416897E0B9
:1017A000119800286AD101203080F8680021007863
:1017B00020707889401C80B200F04EF900280FD0CC
:1017C000318802788918891C3180817A6170418959
:1017D000090AA17002784168E01CFEF729FCD3E7F2
:1017E00030880422001D30800021601CFEF738FC88
:1017F000CAE71198002872D1F86804A900880090FF
:1018000004203080009820700098000A60700098D2
:1018100000F022F9070028D0F86805906846028A8F
:1018200003AB3B49384600F06FF900280FD13B78F5
:10183000022138487A68FFF704F803E027E031E036
:101840001DE049E0002802D13148694688810598A9
:10185000007802280CD1059802224168201DFEF76D
:10186000E7FB3088801C308002E069460098888160
:1018700068468089A070000AE07085E72FE0119823
:1018800000282CD1F968079800F046F804E0119878
:10189000002824D1F8680088022131802070000AD5
:1018A000607071E7F868FEF74DFC1199C0B2814293
:1018B00010D8814201D1002206E0129A8918814293
:1018C00002D31199401AC2B23280F96811980918EE
:1018D000204682E7072557E71198002801D00B25FD
:1018E00052E70721F86831800178217041786170F2
:1018F0008178A1704188090AE170017921718179AB
:101900006171C088000AA0713EE700000028000055
:10191000FFFF00003A70021110B501F082FE0028AE
:1019200000D0807810BD00007CB51446050019D0A9
:1019300068460195018000F09BF903001DD1002C41
:101940001BD06D89002D0DD00C20FEF7C5FB0028A3
:101950000AD0002303608580094A846091680029C9
:1019600004D006E0022308E0132306E0906004E0C0
:1019700011460A68002AFBD1086018467CBD0000A9
:10198000C452FF1FF8B50C4C0746207815460E468A
:10199000FF280FD00A20FEF7DBFB01000AD0B120A0
:1019A00008700020487008714F80CE800D8120782B
:1019B000FEF7AAFBF8BD0000C452FF1FFFB583B0BD
:1019C00008461F4601A90C9E00F046F8050012D0FB
:1019D0006846808801F046FE00280AD04468002C42
:1019E00007D000963B462946059A0398A04707B0C2
:1019F000F0BD0E20FBE70120F9E7000070B51446AA
:101A00000E46054601F00DFE002806D13146054878
:101A100001F007FE002803D005808470002070BD0F
:101A2000112070BDFFFF000010B50178B0290BD167
:101A30004178002908D10179122906D01B2903D148
:101A40004088012100F03EFA10BDFF210231095CFF
:101A50000129F5D010BD0000F0B58C4610494B6847
:101A600019E09F687C89A04214D39E883119814275
:101A700010D900220CE011017D186989814205D13D
:101A80006046002800D004802846F0BD521C92B267
:101A90009642F0D81B68002BE3D10020F0BD000077
:101AA0005855FF1FFFB5174881B00A9F446824E0CE
:101AB00000251EE0A0682901461870890199884216
:101AC00015D30299884212D80498002807D031789B
:101AD0007068049B039AFEF7B4FE002807D0002F1D
:101AE00002D0A06840893880304605B0F0BD6D1C3A
:101AF000ADB2A088A842DDD82468002CD8D100203F
:101B0000F3E700005855FF1FFEB5174600256A464B
:101B10009580044640891D4A1E46904208D001AA7D
:101B20000092401C237880B26268FFF7BBFF054635
:101B30002378022116486268FEF783FE002807D149
:101B40002378022113486268FEF77BFE002801D04B
:101B500060890EE0237802210F486268FEF771FE6B
:101B600000280DD0002D03D068468088B84203D0ED
:101B7000384602F069FA04E06889401E80B200E04D
:101B80006089002E00D030802846FEBDFFFF000097
:101B9000387002113A7002113E70021110B50549F9
:101BA0000870042100F004FA00F006F8FEF7E8FEE1
:101BB00010BD00006855FF1F70B50E4C00200C4B87
:101BC000651CFF228100C91800280ED00D80401C22
:101BD000CA70C0B28A700228F4D3074801F00CFD25
:101BE000064803F007FB002070BD0C80EFE7000003
:101BF0006055FF1FFEFF0000793F0211F93E021100
:101C0000F8B50D4614460646694601F051FB172803
:101C10000CD0002C06D001221021304603F064FACB
:101C2000002803D129463046FEF7A0FEF8BD00008B
:101C300070B50C46080411D509480078FEF716FA6D
:101C4000050007D00178A02901D101F079FC2846D0
:101C5000FEF712FA0120C003604070BD002070BD85
:101C60006855FF1F01490870704700005855FF1F55
:101C700070B50546008800281DD0686802210378E9
:101C800042682248FEF7DDFD002808D1686802217D
:101C9000037842681E48FEF7D4FD00280BD01D4C87
:101CA0006088002805D0012229881204101A814278
:101CB00003D9012070BD022070BD0C20FEF70CFA84
:101CC000060001D000200AE0132070BD02016B68FD
:101CD00061880A329952491C401C618080B229886F
:101CE0008142F3D80020306008222946301DFEF7DB
:101CF0009FF96068002802D1666004E00846016828
:101D00000029FBD10660002070BD00003870021170
:101D10003A7002115855FF1F0649496806E08A6863
:101D20005289824201D18888704709680029F6D11A
:101D3000002070475855FF1F10B51422114201D0E2
:101D4000012202E04A0604D50022102103F0CCF95A
:101D500010BDC80701D0002010BD022010BD10B575
:101D600014468A0604D50122102103F0BDF910BDE6
:101D7000882211420ED008220A40102103F0B4F943
:101D800000280BD0E034617E0029F0D0217E0129AB
:101D9000EDD103E0880701D4032010BD002010BD61
:101DA000014610B50020C90704D0034A07210348A3
:101DB000FFF7BAFD10BD0000406F0211EC51FF1F8C
:101DC00070B50D46164600241D490300FEF742F982
:101DD00008051234341934222934152D23D816223B
:101DE00000211848FEF73CF92A4631461548FEF70F
:101DF0001FF922E0022D16D11149108810390880F0
:101E00001BE0082D0FD10E48082231460838FEF796
:101E1000A5F912E0012D06D1CA69094930782831A7
:101E200007E0012D01D0182407E0CA6B044930787F
:101E3000483102F0D0F900E00224204670BD0000D5
:101E4000EC51FF1F106CFF1F0B7803700B880222F0
:101E50001B0A43700B88801C012B02D0022B07D079
:101E600011E08A7802704988090A417004220AE068
:101E70008A7802704A88120A42700A7982708988C8
:101E8000090AC170062210467047000008B5044BCD
:101E9000009313460A46012103F076F808BD0000BE
:101EA000491E02111CB50323019200930A46024BFE
:101EB000122103F099F81CBDA948021110B5FEF7D4
:101EC00053F910BD13B504480078012803D101AAC5
:101ED0006946FEF74FF91CBD7455FF1F70B50F49D9
:101EE0000F4A087000210B468C00491CC9B21353DD
:101EF0000429F9D30A4C00211034FF260A460A258A
:101F00006A4315196B80491CA354C9B26E72032928
:101F1000F4D3FEF735F903F00BF870BD7555FF1FCC
:101F2000F071FF1F082A01D0012070474B780A7812
:101F30001B02D2180280CB788A781B02D21842800A
:101F40004B790A791B02D21882808A79C9790902F1
:101F50005118C1800020704770B50C46080411D597
:101F600009480078FEF782F8050007D0017890292B
:101F700001D102F03FFF2846FEF77EF80120C003A2
:101F8000604070BD002070BD7555FF1F70B5002802
:101F90000AD1064C00252580A581A580A0680028CF
:101FA00002D0FEF7F3F8A56070BD00006C72FF1F51
:101FB000072907D0052905D0042903D0062901D017
:101FC00002207047044A8B009A181346403B19863A
:101FD000203A907400207047F071FF1F70B5060022
:101FE0001BD10E4C0025214640310D744D740D76E9
:101FF000606D002802D0FEF7C9F865655C200025F9
:1020000046433419E80020184068002801D0FEF744
:10201000BDF86D1CEDB20A2DF4D370BD7C72FF1FAC
:1020200070B50A880C460546072A07D0052A05D050
:10203000042A03D0062A01D0022070BD012103F03A
:1020400007F9002804D02146284602F043FC70BD61
:10205000142070BD10B5001D80B2FEF79DF8002859
:1020600003D00321C943FEF79DF810BD8307FF226B
:10207000DB0E9A408907090E994000280BDA000709
:10208000000F0838830808489B001818C369934359
:102090000B43C3617047830804489B001B181868F2
:1020A000904308431860704700ED00E000E400E052
:1020B00038B50C46050014D0002C12D00321684618
:1020C00003F0E8FC6946887840218006800E0843CA
:1020D000694688702246284604F014FA050002D0AA
:1020E00006E0022038BD03226946E01CFDF7A0FF90
:1020F000284638BDF7B58EB00E9815460E46002816
:102100002DD0002D2BD0301DC0B20190FDF7E4FF83
:10211000040039D000F022FA07463246201D0E99FD
:10212000FEF746F8F8B20890E0703804000E0B9005
:10213000A0703802000E0A9060703F0E277000F009
:1021400007FA0146102202A8FEF732F806AB214634
:1021500002A8019A04F02CF9060003D010E0022036
:1021600011B0F0BD089828700B9868700A98A87094
:10217000EF70082206A9281DFEF71AF800F0F4F9FE
:102180002046FDF7BBFF00E013263046E8E70000DD
:1021900010B5064C2070FEF711F806212078FFF7E5
:1021A00007FF034803F026F810BD00008455FF1F09
:1021B000E95A021170B50C46080419D50D4800788B
:1021C000FDF754FF05000FD003F0AEFD002808D145
:1021D00009480078FF2804D02946FDF795FF00281C
:1021E00002D02846FDF748FF0120C003604070BDC3
:1021F000002070BD8455FF1F4C55FF1F10B50548CA
:102200000078400701D5044800E0002003F014FEE8
:10221000002010BDC754FF1F7855FF1FFFB58DB0BC
:102220000F98169C0E46002815D0002C13D00D9840
:1022300002F080FF050011D0617820780902401873
:10224000A178E2780904120689184718286AB8426A
:1022500006D3401C04D0022011B0F0BD1420FBE7CF
:10226000002E04D02879800701D40120F4E7082249
:10227000002106A8FDF7F4FE1098001DC0B20190E1
:10228000FDF72AFF060017D0301D109A0F99FDF7B1
:102290008FFF042221463046FDF78AFF1022A9183D
:1022A00002A8FDF785FF06AB314602A8019A04F0AB
:1022B0007FF8050002D013E01320CDE7082206A91D
:1022C00008A8FDF775FF0822211D08A8FDF7BCFE30
:1022D000012801D0012503E039460D9800F030FFB8
:1022E0003046FDF70BFF2846B6E7000070B50546FF
:1022F000002409490948FFF79DF9094802F07AFFCF
:10230000E80706D00448074A08210830FFF70CFB0D
:102310000446204670BD0000A053FF1FFFFF0000D1
:1023200025580211B86F0211FFB583B00F4603980C
:102330001B4940001646085AFFF78CFE04002AD0BD
:102340000125601C2670002F03D00699B847401C59
:1023500085B2300610D51021039802F079FF0028CD
:1023600001D0192613E06219E9B22046FFF7C2FE38
:1023700006000CD10C35ADB20421684601800194F1
:10238000058169460398FFF74BFE060004D02046FE
:10239000FDF7FCFE00E01326304607B0F0BD00005C
:1023A000C054FF1F10B50C4602F0D8FE002804D020
:1023B00040882146FDF7B4FE10BD122010BD00225A
:1023C000002913D0002811D0012806D04A7992069E
:1023D000920E4A71032805D007E04879C0221043C5
:1023E000487102E0402002434A71012210467047C2
:1023F00070B5124800250078052108421BD0202026
:10240000FDF76AFE0E4C0028A06013D020220021A8
:10241000FDF726FE2020FDF75FFEE060002804D0D7
:1024200020220021FDF71CFE05E0A068FDF766FEF6
:102430000020A0601325284670BD0000C754FF1F70
:102440003055FF1F002909D0012807D14979890992
:102450008901C02902D0402901D002207047032001
:102460007047FFB500200E4608701AE01C5C401C47
:10247000C5B2002C17D02819904214D85F5D6D1C8E
:10248000EDB2384600F085FE002806D0641EE0B2AA
:10249000307000998F4202D1581904B0F0BD401934
:1024A000C0B29042E2D30020F7E7000010B5044C20
:1024B0002068002803D0FDF721FE0020206010BD19
:1024C0008C55FF1F70B50E4D84002859002815D07B
:1024D000006A002801D0FDF711FE2859406A002843
:1024E00001D0FDF70BFE2859806A002801D0FDF7C6
:1024F00005FE2859FDF702FE0020285170BD00009E
:102500002855FF1F10B5044C6068002803D0FDF764
:10251000F5FD0020606010BD2055FF1F010004483C
:1025200005D104498978002901D00248801D7047EF
:10253000E471FF1FC654FF1F0148807870470000F8
:10254000C654FF1F0148406870470000D471FF1F48
:102550000148806870470000D471FF1F0148C068BF
:1025600000687047D471FF1F10B50748C068016844
:10257000491C016005480078FF2803D00121890328
:10258000FDF792FD10BD0000D471FF1FC654FF1F60
:1025900002484068002800D0012070478855FF1F7E
:1025A000FFB581B00F460D9E0A9D039802F0C2FD53
:1025B000040042D0019800283FD12079102108431F
:1025C00020710499490702D50221084301E0FD2149
:1025D000084020710B99284608430C990843304362
:1025E000207902D00421084301E0FB21084020713A
:1025F000002E06D03069102220623146A018FDF767
:1026000017FD002D01D0002F05D00B98002814D005
:10261000012F08D011E0606A002801D0FDF76EFD9F
:102620001C21284606E0606A002801D0FDF766FDFF
:102630001C210B98FDF7C8FD60620398224C8700AF
:10264000E05900283ED0002D0FD0006A002806D1A6
:102650001C20FDF741FDE1590028086205D0E05932
:102660001C22006A2946FDF7E3FC0C98002810D0D4
:10267000E059406A002806D11620FDF72DFDE159EA
:102680000028486205D0E0591622406A0C99FDF7EF
:10269000CFFC002E10D0E059806A002806D114200B
:1026A000FDF71AFDE1590028886205D0E05914228F
:1026B000806A3146FDF7BCFC0B9B049A0399019894
:1026C00002F0C4FF05B0F0BD2855FF1FF3B581B07F
:1026D000019802F02FFD050029D00E20FDF738FDEE
:1026E000040024D02620FEF78FFD060000D12E78AE
:1026F000D0202070002767700B20A0700622E91DF3
:10270000E01CFDF795FC019860810298C10701204B
:10271000002901D0207300E027730299890701D5B1
:10272000607300E06773F0B22146FDF7EDFCFEBD7B
:1027300010B581881F4B0124CA1A994237D011DC89
:102740001D4BCA1A994219D007DC1C4A8A1810D0AE
:10275000022A1ED0032A29D11BE0472A27D0482A63
:1027600024D124E01300FDF775FC06212222222249
:1027700022218068007800F0CDFC08E08068827833
:1027800041781202891889B2007800F023FD0446CE
:102790000DE0094A921E914201D1012200E000227F
:1027A00080680178104600F0FDFC00E0002420461F
:1027B00010BD0000532000000A200000FADFFFFFD8
:1027C00070B51A4D1A4A0146002628781268194C2D
:1027D00001290CD0002A09D017490978490705D5E5
:1027E0000221FDF75BFC6680FFF760FE70BD61882B
:1027F000002903D0114B1B78002B05D0002AF5D0FF
:102800001078FEF7D7FC70BD3C2902D33C396180BB
:1028100070BD0221FDF742FC62887D20C00042436A
:1028200002212878FDF734FC668070BD4D55FF1FEE
:102830008C55FF1F3055FF1FC754FF1FC954FF1F82
:1028400008B5418900910389C2888188C07800F069
:10285000ADFB08BDF0B504468088A121890048433E
:10286000304987B009684018FF30FF300230A17945
:102870004167002C54D02C4D6868002823D006787E
:102880002A480068002804D04168002901D00020AF
:1028900088472146E07908310591FFF7D3FDE071C3
:1028A0000246277D638A218AE089019002A88AC0B6
:1028B000A0880090E0783146059B02F03DFFE0786B
:1028C000002802D00DE01A48D9E7E079E2896B468A
:1028D000059907C3A379A1880122304602F0D8FBED
:1028E000E0706868002811D0FFF70CFE28780028F7
:1028F0000CD06978FFF756FD002807D0E078A28851
:102900000346297802F06CFF00202870A088172168
:10291000FEF7AAF9A088FFF739FBA088FFF75EFB56
:1029200007B0F0BD3409FF1F2055FF1F5055FF1F92
:10293000C654FF1F70B504460026808802F0FAFBDB
:10294000002803D00678A08802F066FC144D287891
:10295000002808D0864206D16978FFF723FD0028B9
:1029600009D000202870002E05D0A379A288A07875
:10297000314602F035FFA088094A810008325158DB
:10298000002901D0FFF79EFDA0881721FEF76CF902
:10299000A088FFF7FBFAA088FFF720FB70BD0000BE
:1029A0002055FF1F70B58288294D0124531B2949EA
:1029B000AA4242D019DC284D531BAA4218D00BDC86
:1029C000264BD21826D0254B1033D2181ED0032AFE
:1029D00017D0042A39D10BE0012B09D0022B07D0E4
:1029E000032B21D0042B30D11AE0433B072B2CD8EA
:1029F000496800292AD00968002927D08847044659
:102A000024E08068007800F0ADF81FE0806800F0F6
:102A100001F9F4E78068411C007800F0D9F8EEE78E
:102A200083681B78002B11D0896800290ED00B68B1
:102A300008E0014610469847E1E70949096800297E
:102A400004D04B68002BF4D100E00024204670BD78
:102A50000E2000004C55FF1F08200000F7EFFFFF7D
:102A60002C55FF1F10B5094CA17800290CD0014648
:102A70000622A01DFDF7DCFAA11DA078FFF79FFC40
:102A8000A01DFDF7A7FB10BD002010BDC654FF1F01
:102A90001CB52F49037801240A68912B02D0A22B80
:102AA0002ED13EE04178052909D00E2904D00F2906
:102AB00008D03E2924D115E0FFF774FF10E0FFF79E
:102AC00039FF3AE001468088224B0124C31801D027
:102AD000062B15D1002A30D05268002A2DD09047FD
:102AE00004462AE081780124032917D004DC012957
:102AF00011D0022904D105E015291ED016291CD0B9
:102B000000241AE014498968002916D04968002970
:102B100013D0884711E0FFF79DFE0EE0FFF790FE0F
:102B20000BE00E490978042909D0002A05D0526823
:102B3000002A02D001460A48904720461CBD0021C9
:102B40006A46118001794088FFF7A0F9F5E7000097
:102B50002C55FF1FF3DFFFFF4C55FF1FC754FF1F0E
:102B6000FFFF0000F8B5164F0646BD1F2878FF2866
:102B700014D00A20FDF7ECFA04000FD0D02020700A
:102B800066700820A070A878E07006223946201DE3
:102B9000FDF74EFA21462878FDF7B6FAE8780128C5
:102BA0000DD108480068002803D08068002800D0B4
:102BB00080470648044A04210078FDF793FAF8BDDF
:102BC000CC54FF1F5055FF1F60EA00004D55FF1FFA
:102BD00070B500240546002805D1002903D006223F
:102BE0000B48FDF725FA0A4810380178012907D16A
:102BF0000124002D06D000210170284600F0B2F912
:102C0000204670BD02210170FDF7EAFAF8E70000E6
:102C1000E471FF1F10B50024002813D002780B497F
:102C2000002A03D14288CA8202790A760A78022AE7
:102C300008D102780124002A06D000220A70007808
:102C400000F090F9204610BD0322F7E7D471FF1F72
:102C500001494860704700004C55FF1FF8B5774C9C
:102C600087780146002507266079A2793B00FDF7A9
:102C7000F1F90805361A37375F94C73648780028C7
:102C80005CD16E4806223C30C91CFDF7D1F9012009
:102C9000A0716A4B0146423362786079FEF75AFCB4
:102CA00000284BD1A2E00F464978002946D1F97897
:102CB000002906D0624BA2780021FEF74BFC787009
:102CC0000AE0022A0BD00121FDF7F4F9002803D114
:102CD00001216079FDF7E8F9787800282ED1F8BD58
:102CE000497800292AD1032F09D0A289002A0CD0C3
:102CF000217800290AD00121FDF7CAF906E0052A4A
:102D000001D0022012E0062010E02570A0790628EC
:102D100002D0042802D008E0052007E0012020703E
:102D200001466079FDF7C0F960E00320A0715DE025
:102D300048780F46002803D031282CD0A67155E0E2
:102D40003E480622391D3630FDF772F97889E08158
:102D5000B8892082F88960820520A071A28A002AA1
:102D600003D002216079FDF793F9B889E083F889EF
:102D70002084388A6084E07801280AD11F20FEF779
:102D800043FA7D21C9004843024604216079FDF7DA
:102D90007FF925702AE02570C7E728480E460622ED
:102DA00000213630FDF75CF9E58325846584042134
:102DB0006079FDF773F908216079FDF76FF9B07953
:102DC000082808D00320A0712078002805D0607959
:102DD000FEF7F0F907E00420F5E701202070014636
:102DE0006079FDF761F90020C043E081606A002846
:102DF00000D174E701680029FBD0A0798847F8BDAD
:102E00000D460821FDF74AF9687829460028F6D1D1
:102E1000E888E083288920844889608404216079D7
:102E2000FDF748F90028EAD1A06A0028E7D0036836
:102E3000628C218CE08B9847F8BD00006052FF1F28
:102E4000266CFF1F10B501781C4C912906D0A229D1
:102E50001BD0D02901D1FFF701FF10BD41780E2909
:102E6000FBD18188164A9142F7D181680320085628
:102E7000A1790529F1D17F28EFD0616A0029ECD032
:102E800049680029E9D0884710BD41791329FBD151
:102E90000089012802D12079022808D00520FEF7F8
:102EA000B3F9024608216079FDF7F2F810BD082158
:102EB0006079FDF7F3F8FEF74DF910BD6052FF1F82
:102EC000051400007CB5154C0546E08BE18A88426C
:102ED0000AD3218B884207D8208C618B884203D18A
:102EE000608CA18B884217D00520FEF78DF906462D
:102EF000E18A68460180218B4180618B8180A18BB2
:102F0000C18062796946E089FEF7CCFF25713246BF
:102F100008216079FDF7BCF87CBD00006052FF1FFE
:102F2000F8B507460E46084602F004F9040018D02A
:102F30002620FEF769F9050000D125780620FDF767
:102F400007F904000DD006220021FDF789F8D020F2
:102F5000207067700E20A070A680E8B22146FDF7B1
:102F6000D3F8F8BD70B50F4D06462878FF2818D065
:102F70000E20FDF7EDF8040013D0D020207066700D
:102F80000020A07006220849E01CFDF751F8064811
:102F90001038C18A6181007E207321462878FDF7B0
:102FA000B3F870BDC654FF1FE471FF1FFFB581B0B9
:102FB0001E4617460D460C20FDF7CAF8040013D034
:102FC000284602F0B7F8002810D00078D0212170F0
:102FD000019961700721A170A580E78026810A9977
:102FE00061812146FDF790F805B0F0BD0048ECE79F
:102FF000C654FF1F70B50D4D044628680E460028C4
:1030000012D00620FDF7A4F8010009D0D0200870E6
:103010004C70032088708E8028680078FDF774F863
:10302000002C01D0FFF742FA70BD00008C55FF1F45
:10303000FFB581B01F460E46084602F07BF805003A
:1030400022D01020FDF784F804001DD010220021AA
:10305000FDF706F82620FEF7D7F8002800D12878DB
:10306000D0212170019961700F21A170A680039970
:10307000217267720A99A1720B99E1720C99E16051
:10308000C0B22146FDF740F805B0F0BDF0B51F4DC8
:1030900085B02868002837D08778FEF731F90028F6
:1030A00005D00A20FEF7B0F804900B200EE001F0E6
:1030B000C9FB002805D00620FEF7A6F804900720DB
:1030C00004E00820FEF7A0F804900920FEF79CF821
:1030D00004460F480078002814D001262968C878D3
:1030E000091DFFF76CF929686D46CA7A8B7A091DAC
:1030F0000BC5039233463A4621460498FDF776F80D
:1031000005B0F0BD0026E9E70120F9E78C55FF1F67
:10311000C854FF1F10B50949096800290CD00028C0
:1031200005D101204870FCF7CBFF002802D0002118
:10313000FFF760FF012010BD002010BD8C55FF1F60
:10314000F8B50C4601F0F6FF020021D026201462EB
:10315000FEF75AF805062D0E00D115789679D01D88
:1031600000901020176AFCF7F3FF040010D0D02065
:103170002070002060700920A070E6700622201DDB
:103180000099FCF755FF21462846E760FCF7BCFF95
:10319000F8BD411E152903D9FF2801D00020704732
:1031A0000120704770B50A4E054630780C46FF285E
:1031B0000DD00420FCF7CCFF010008D0D02008700F
:1031C0004C7002208870CD703078FCF79DFF70BD88
:1031D0003055FF1FF3B5284D81B0286800284AD02C
:1031E0004078264E012803D03078002831D041E0C5
:1031F00001F028FB224F002813D00120FEF704F82D
:103200000446412808D91F4A02213878FCF76AFF92
:103210001D483C3C44800EE07D20C00022464243D5
:1032200003E00020FDF7F0FF0246002A03D0022150
:103230003878FCF72DFF2968022048703078002884
:1032400002D00020307015E002990198FFF7D2FEFD
:1032500010E00320019CFCF77BFF010008D0D02088
:1032600008704C700420887028680078FCF74CFFC8
:10327000FFF71CF90120FEBD8C55FF1FC954FF1F2D
:103280004D55FF1F60EA00003055FF1F074A00211F
:103290008B00D35A834202D1880080187047491CA2
:1032A000C9B20229F4D30020704700006055FF1F07
:1032B00010B50C46FFF7EAFF00280DD0002C00D017
:1032C00020608078FE2803D0FF2803D0162010BD90
:1032D000172010BD002010BD022010BDFFB581B029
:1032E000FF201E46174605300A9DFCF731FF0400FB
:1032F0001BD0B02020706770029860802671002D6E
:1033000006D02046FC2229460830FCF791FE05E055
:103310002046FC2200210830FCF7A2FE214601983D
:10332000FCF7F2FE002005B0F0BD1320FBE7000023
:103330000548172202800988172901D20420704706
:103340000180002070470000C254FF1F002070471A
:1033500008B50A460888498888420BD8002809D051
:10336000002300931379521DFEF79CFB002803D025
:10337000002008BD012008BD0A2008BDF3B50D4698
:1033800008884988002687B0814215D3002813D0C9
:10339000002769460F710097002369881A46FEF7D7
:1033A00081FB04004FD068460079002807D06946A9
:1033B0004979012925D008E0012009B0F0BD217824
:1033C00002291BD002216A4651711222504301AAE0
:1033D000618980184180684600791223584380181B
:1033E0001022001D6168FCF723FE68460079401C2E
:1033F0000106090E684601711FD11AE001216A46D3
:103400005171217802291ED1820001A86189121808
:1034100051806A4612796168920010180222001DDC
:10342000FCF706FE6A461079401CC0B210710528F0
:1034300003D261890A48814200D101266089401C7B
:1034400080B2002EA7D068460079002805D001A9D7
:103450000798FDF771FA0020AFE70A20ADE70000FA
:10346000FFFF000038B50C4608884988884215D807
:10347000002813D02379621D02210B48FDF7E1F9E2
:1034800000280DD000200090237961882088621DDB
:10349000FEF708FB002805D0002038BD012038BD0C
:1034A000102038BD0A2038BD3870021108B50A4610
:1034B0000888498888420BD8002809D00023009347
:1034C0001379521DFEF7EEFA002803D0002008BD44
:1034D000012008BD0A2008BDF8B500250F460646A4
:1034E0000C46E03717E06800205A0021FEF7B4FAD6
:1034F000002809D0017A3046FEF71EFC002808D0CB
:103500006900615A2180F8BD6800205A208001209E
:10351000F8BD6D1CEDB2B87DA842E4D80020F8BD1E
:1035200010B5044608880021FEF796FA002804D05A
:10353000017A2046FEF700FC10BD012010BD0000FE
:1035400030B585B005466946FDF76AFA040026D114
:1035500068468078C1071E4809D08268002A04D0D6
:10356000688869469047044619E0062417E04268D7
:10357000002A05D0688869469047040001D10EE012
:10358000062468464078002809D16846817801738E
:103590000021C1810474688803A9FDF78DF9A8682A
:1035A000002801D0FCF7F2FD002C05D16846807898
:1035B000122807D01B2803D068880121FEF782FC5F
:1035C00005B030BD684640780128F5D1F8E7000025
:1035D0006855FF1F70B505460C4608880021FEF7A8
:1035E0003BFA002805D0017A22462846FEF7B7FBB1
:1035F00070BD012070BD00000149486070470000A7
:103600006855FF1F10B50446801C00F029FDFF20FF
:10361000E07010BD10B500F025F8002800D08068DB
:1036200010BD00229300CB5A834202D19000401873
:103630007047521CD2B2022AF4D300207047000017
:10364000074A0021CB00D35A834202D1C800801818
:103650007047491C0906090EF4D00020704700008D
:10366000D452FF1F0649896805E08A88824201D149
:103670008868704709680029F7D10020704700006A
:10368000C452FF1FF8B50746012906D0022924D1EC
:10369000012101F0DDFD00281FD13846FFF7D0FFE2
:1036A000050015D000240D4E0CE0F8206968604339
:1036B00008180188002908D0F8220021FCF7D0FC66
:1036C000641CE4B270788442EFD30020C0432880A9
:1036D000024938461831FDF7ADFFF8BDC452FF1F4F
:1036E000F3B5064683B00830019000200090708842
:1036F000FFF7A6FF07002FD0002523E0F820796808
:1037000068430C182188002920D0019800780128EE
:103710000FD160880090A3887088A21DFEF74EF933
:103720000090002805D00199002008700498218895
:103730000180F82200212046FCF792FC00206D1C3D
:103740002080EDB2074840788542D7D30020C0439F
:1037500038800098002802D17088FDF7D7F80098CB
:1037600005B0F0BDC452FF1FF3B50546374C064601
:1037700085B00835F62200212046FCF771FC03A82D
:1037800000902B79698828886A1DFEF78BF9074617
:1037900045E070882E4A4100515C2E4BC91FC9B2CA
:1037A0000093002202910192284B69468A89F63BD8
:1037B0003946FDF79FFF002812D126482989001FAE
:1037C000828891420CD121492846F6390A30FCF70B
:1037D0003BFC002804D021787889890009194880A9
:1037E00068468289698804AB3846FEF78DF907463A
:1037F0002078810009194A88002A10D0002F05D0AE
:103800006A46128A401C20708A800AE00206002163
:10381000920DC9431219401C2070918006E0002FC0
:1038200004D00D48217800888142B2D32078002846
:1038300006D070882146FDF771F8002007B0F0BD72
:103840000698298801800A20F8E70000546EFF1FBF
:10385000C054FF1FC852FF1FBC54FF1FF0B585B0F6
:10386000044600206946888120790E2869D00FDC43
:10387000082823D004DC022813D0062818D118E029
:1038800025460835484F0A281DD00C2810D138E0AD
:1038900010285BD012285ED0162861D0182877D166
:1038A00063E043484149008808806088FDF70EF8CE
:1038B0006EE003A92046FFF757FF5AE003A9204610
:1038C00000F076F955E0288804A9FEF7C5F8010054
:1038D00015D06088354E4200BA5C0023521ED2B229
:1038E0000193029200966A46B31C128AFDF702FF0A
:1038F00000281DD160883146FDF796F948E0012087
:1039000016E0288804A9FEF7A7F80100F7D0608820
:103910006B884200BA5C254E521ED2B201930292CD
:1039200000966A46B31C128AFDF7E4FE002803D015
:1039300029886A4691811CE060883146FDF744F988
:1039400026E003A9204600F0D3F912E003A920469F
:1039500000F082F80DE003A9204600F039FA08E0F3
:1039600003A9204600F028F803E003A92046FFF74A
:10397000B7FE00280CD06178142909D00B492279B0
:103980000A706A4692894A8008716088FCF794FF41
:103990002046FEF749F80748C168002901D02046B3
:1039A000884705B0F0BD0000C054FF1F546EFF1FD4
:1039B000BA54FF1FC452FF1FF8B504460F46054610
:1039C000083400896946FEF747F806003AD0307A95
:1039D00080060ED568460088FFF71CFE030006D05F
:1039E0006888122231469847060002D02BE00E2646
:1039F00029E06E883046FFF723FE010005D1144808
:103A0000FFF71EFE01000ED00E80124A00205278F1
:103A100007E0F8264B6846439B5B002B05D0401C13
:103A2000C0B29042F5D309260DE04968F822504310
:103A300008182146FCF7FCFA002668882146FDF7A5
:103A4000B9F802E00126208838803046F8BD000031
:103A5000FFFF0000C452FF1FF3B58BB000200B9E88
:103A60000746039004A800903246337B7189308961
:103A70004C4C0D320836FEF715F8054678E00B98E9
:103A8000297A4088FEF758F9070003D00C98698915
:103A900001806FE00B9844494088444B4200895CA8
:103AA0000093891FC9B20022029101923D4B6946E1
:103AB0000A8AF63B2946FDF71DFE0700E6D103986A
:103AC000002833D039486188001F8088021D914248
:103AD00053D1039909180B98408842003248805A04
:103AE000801F814249DC0399A87A61180871039804
:103AF0006989401C80B22218090A401C117180B2E9
:103B000003906846028A718807AB2846FDF7FCFFE0
:103B1000050011D003986946898B2018017103981C
:103B20006946401C898B80B2090A0CE01F48001FBF
:103B30008088001D6080D6E70398FF21201801715E
:103B40000398401C80B222181171401C80B21749A2
:103B50000390091F8A8813492018F639001DFCF7C5
:103B600067FA12490398091F8988401880B20390A8
:103B7000002D84D1039800280CD061880398FCF7AD
:103B80003BFB20700B9821464088FDF727F800206A
:103B90000DB0F0BD002F00D10A270C9831880180AC
:103BA0003846F5E7546EFF1FC054FF1FC852FF1F71
:103BB000F3B50746044608378BB049480490388867
:103BC00000252E4605906AE007A800903B79798889
:103BD0007A1D0598FDF766FF0890002852D04089AD
:103BE00005900898017A6088FEF7A6F806005DD176
:103BF00060883C494200895C3B4B091FC9B2009375
:103C0000002202910192364B69468A8BF63B089955
:103C1000FDF770FD060049D1002D36D0049841888B
:103C20003148001F8088801C814241D12E4B1B1FD0
:103C300098882918608842002A48805A001F8142CB
:103C400020DC0898817A04984019017108996D1C4C
:103C50004989E8B20A0A049909180A71401CC5B2D8
:103C6000194604988A881E494019F639001DFCF748
:103C7000DFF91D481D49001F00792818C5B20598B5
:103C8000884209D1002D13D123E017480499001F61
:103C90008088801C4880C9E7401C80B205906088FD
:103CA00041001048405A001FA8428DDA002D0ED066
:103CB000049841882846FCF79FFA01460498017051
:103CC00060880499FCF798FF00200DB0F0BD002E2D
:103CD00000D10A260C99059808803046F5E70000C7
:103CE000546EFF1FC054FF1FC852FF1FFFFF00008C
:103CF000F3B506460446002085B0324D00900836E4
:103D0000288007463046E030049048E07800305A7A
:103D100003A9FDF7A1FE01001AD060882B4B844651
:103D200042002948805C0093401EC0B200220290ED
:103D30000192244B68468289F63B6046FDF7DAFC27
:103D40000090002807D07800315A0698018035E0AD
:103D500001200090F7E71D492888091F898842182B
:103D600061884B001849C95A4B1E9A4204DD081A53
:103D70001649091F401E88802988A81C0818134965
:103D8000091F8A880F49F639FCF752F90F4829882C
:103D9000001F8088081828807F1C0498FFB2807D4F
:103DA000B84207D96088298842000748805A401ED7
:103DB0008142ABDB60882946FCF72CFF009807B0F6
:103DC000F0BD0000546EFF1FC054FF1FC852FF1FFC
:103DD000F3B5054683B004460835008901A9FDF70F
:103DE0003BFE2746E8370646002822D0307A800678
:103DF0000ED568468088FFF70DFC030006D060886A
:103E0000122231469847060002D013E00E2611E038
:103E1000002000906B88298860882A1DFDF7CEFD60
:103E2000060007D1787E002807D16088FCF728FFBC
:103E300003E00126049829880180787E002802D0BA
:103E4000002005B0F0BD3046FBE70000F8B50446A1
:103E50000246F820424319480025074645701037AE
:103E60007868002807D00020C100C919401C00064E
:103E70004D60000EF8D0124E00213046FCF7F0F8ED
:103E8000002001466143C9B2F82251438B190B4906
:103E9000C200103152180021536005E0F8274F434B
:103EA0005368491CDD53C9B2A142F7D3401C000638
:103EB000000EE6D0014844700020F8BDC452FF1F38
:103EC000666CFF1F7CB50C78069D022C0FD14C68E8
:103ED0002678647824023419064EA4B2F44206D13E
:103EE0000224DBB200950194FDF7BCFB7CBD0120F0
:103EF0007CBD0000FED6FFFFF8B505461D48854293
:103F000023D0461C002921D001292BD002291CD105
:103F10000121284601F09CF9002816D12846FFF718
:103F2000B5F9040011D0A078FF280ED0FE2807D0E4
:103F300000200090E0781E2314222946FFF7CEF9D6
:103F40002046FFF75FFBFF20A070F8BD2846FFF773
:103F50009DF90028F9D13046FFF798F90028F4D0F0
:103F60000580F8BD2846FFF791F90400F9D02680B6
:103F7000D9E70000FEFF0000F3B50C468978C1B018
:103F80001E2914D02E4D2878FF2829D0182927D88B
:103F90004808C2002B481218803A976F002F1FD094
:103FA000D06F00281CD02078002817D113E041984A
:103FB000FFF76CF905000BD000200090A378E8789B
:103FC00000224199FFF78AF906462846FFF71AFBB7
:103FD000304643B0F0BD6278012A03D1122901D0E6
:103FE0000620F6E702AE0096A3886178A268B8477B
:103FF0000028EED1A0784008C10012480818803887
:10400000C26F02A94198904700280FD0617800291B
:10401000DFD1A27869460A7008716846018941803B
:1040200069464198FCF748FC0020D2E7A378042BAE
:10403000CFD00096002228784199FFF74FF9C8E7C2
:104040005855FF1FD46F021100B50346FDF764FEFB
:10405000002803D0C018401E80B200BD184600BD25
:1040600010B5040008D02078FF2805D0FE2803D022
:10407000FCF7C8F8FF20207010BD0000F7B5064619
:104080000F461020FCF728F805461020FCF724F80E
:104090000446002D3AD0002C2DD010220021FBF731
:1040A000DFFF2A462146304601F072FC060023D18C
:1040B0002878000604D43946284600F0DBFF08E0E3
:1040C0002146284600F0D6FF3A461149204602F024
:1040D000E3FE3878000604D43846029900F0CAFF9F
:1040E0000AE02146384600F0C5FF09492046029AF9
:1040F00002F0D2FE00E013262846FBF7FFFF002C5B
:1041000002D02046FBF7FAFF3046FEBD1326F6E745
:104110005E700211F8B5069800271D4614460E463B
:10412000002801D00B20F8BD30780021022801D0F2
:1041300019804DE07068027840780002101815224E
:1041400080B25202801A0300FBF784FF0504121F9D
:104150001A254100F068FBF7F5FFC2B207988242CA
:1041600000D902462A80F1682046FBF761FF30E063
:10417000F0680221008829802070000A607028E021
:10418000062028800246F168EEE701202880F068CA
:10419000007820701DE0F068002816D008212980E2
:1041A000017821700188090A61708178A1704188C5
:1041B000090AE170017921718188090A61718179A7
:1041C000A171C088000AE07103E0298001E0298024
:1041D00001273846F8BD10B50B78840702D50224B4
:1041E000234301E0FD2423400B7003070B7802D525
:1041F0000824234301E0F72423400B7083060B7847
:1042000002D52024234301E0DF2423400B700A2140
:10421000084201D1810603D510780C21084304E03F
:10422000002803D11078F3210840107010BD000061
:10423000FFB581B0087800240A9E1F460D4602286B
:104240000FD168680178407800020818152180B203
:104250004902401A09D0012829D0022848D0032851
:104260003CD00124204605B0F0BDE868FBF76AFFAA
:10427000C0B2864205D8F0190090152803D90D2444
:10428000F0E70724EEE7E8683A4680190399FBF760
:10429000CFFE0098EA6880B2002111541C484068A3
:1042A0000028DFD001680029DCD0002012E0002EB9
:1042B00012D1022BE3D10399E8680A784978090200
:1042C00051180180124840680028CBD001680029AD
:1042D000C8D001208847C5E70B24C3E7002EFBD1D7
:1042E000062BCCD10622E8680399FBF7A1FEB9E7BB
:1042F000002EF1D1012BC2D103980078002803D001
:10430000012801D08024ADE7E9680870AAE7000021
:10431000DC51FF1F10B50448C16B034A40321068DE
:10432000D06000F027FA10BD0080004030B5C21FF9
:104330000A2A01D3062030BD0124074D94400029EC
:1043400005D0002100F0A6F82868204301E0286885
:10435000A0432860002030BD00380040054B0122FA
:104360008240D868002901D0104300E09043D86013
:10437000704700000038004010B5114C207800282C
:1043800001D0072010BDFF212D310D48FBF740FF64
:10439000012020700B490020086348630A49086225
:1043A000486202211020FDF761FE01200749000448
:1043B0000860074A07490D20FBF730FF002010BDB9
:1043C000586AFF1F0080004080F0004000E100E0DC
:1043D000E54502115945021110B5172801D30520F2
:1043E00010BD0C4B9C6B0122824010462043986309
:1043F000586B90435863DC6B012907D020469043EB
:10440000D863186B02431A63002010BD1046204386
:10441000F6E7000000800040054B0122801E82402C
:104420005869002901D0104300E09043586170475B
:104430000038004070B5044614480E46051900299E
:1044400002D16878012808D000212046FFF786FFB6
:10445000022C04D0032C02D005E0072070BD0121FE
:104460002046FFF7D9FF00212046FFF75FFF0849EC
:104470000120A0404A68012E05D082434A600220F4
:104480006870002070BD02434A60FAE7586AFF1F57
:104490000080004070B5420083180D4A9C18A57832
:1044A0006478D65C641B0122641CA240521EAA40A0
:1044B000084BA940132806D2B000C0188368934364
:1044C0000B43836070BD586990430843586170BDC9
:1044D000C56E021100F0004007494A68012383407D
:1044E0001A4201D0096802E0034940310969C1401C
:1044F000C807C00F704700000080004070B5154C21
:1045000045002E1976780123114AB34000290ED0B8
:10451000142809D0152807D0162805D06057800028
:104520008018816819430DE0506918430EE0142883
:104530000AD0152808D0162806D0605780008018A9
:1045400081689943816070BD50699843506170BD26
:1045500000F000400A6F021170B5104D00242E19B2
:104560007078012803D1E0B20121FFF7C7FF70780E
:1045700002280ED1E0B2FFF7AFFF01214140E0B2C7
:1045800000F078F8E0B2FFF7A7FF0C21614349196A
:104590004876641C172CE2DB70BD0000586AFF1FD0
:1045A00010B50F4C0D4A0123245C142809D2106A5F
:1045B000002902D0A340184301E0A34098431062B1
:1045C00010BD506A002903D0203CA340184302E0EC
:1045D000203CA3409843506210BD000080F0004092
:1045E000AE6E021170B502211020FDF73FFD0120D3
:1045F0001E490004086000241D4D07E0022C01D074
:10460000032C03D1E0B20121FFF706FF28194078FF
:1046100001280BD1E0B2FFF75FFFE2B2014610467E
:1046200000F064F8E0B20021FFF768FF0C2060435F
:104630004019007E002814D0E0B200F069F8E6B21C
:104640003046FFF749FF002801D0012100E000219A
:104650000C2272435219527E824202D0304600F040
:10466000BDF8641C172CC9DB70BD000000E100E040
:10467000586AFF1FF8B542008318184AD55C9A188B
:104680009278521ED4B2164A12185278022A21D1B8
:10469000144EB76B0122134683401F43B763124B7E
:1046A00013280ED2002906D0A900C9188B68A24091
:1046B00093438B600BE0A900C9188B68A240134399
:1046C000F7E70029596906D0A240914359610121B9
:1046D000FFF766FFF8BDA2401143F7E7C56E021170
:1046E000586AFF1F0080004000F00040012200B522
:1046F000064B82400029196801D0114300E0914324
:1047000019600121FFF796FE00BD00000080004007
:1047100070B50446164821460C2251430D186A68AC
:104720000026002A02D1AA68002A1CD0104B0222BF
:10473000183B1B195A700122425400212046FFF7F2
:1047400079FE6868002808D0A86800280DD02046A7
:10475000FFF7C2FE002808D0002631462046FFF7AA
:104760003BFE002070BD122070BD0126F5E7000061
:10477000706AFF1FF3B5184E002481B0074601256B
:104780002846A040384223D00299084000D001209A
:104790000090E0B2009900F021F80C2060438019ED
:1047A0004168806800290ED0002807D000980028B2
:1047B00002D00021E0B203E00121FBE7E0B20121D9
:1047C000FFF70AFE04E0002802D0E0B20021F7E77C
:1047D000641C172CD4DBFEBD706AFF1F074A0C2334
:1047E00043439B185A68002A01D0012904D09A68D3
:1047F000002A02D0002900D110477047706AFF1FBD
:1048000070B505460D4885420CD00D4C01290AD0E3
:10481000022905D10121284600F01AFD002802D006
:104820000020A07070BD06492846091DFCF702FF54
:10483000A0780028F6D0FBF7F7FC70BDFEFF000063
:104840002853FF1F08B509488368002B0CD01A783D
:10485000694601205B1CFDF704FE002804D00078A7
:10486000C00701D0012008BD002008BD3055FF1F42
:1048700010B503460B4A00200A2141438918498894
:10488000002905D0401CC0B20328F5D3002010BD7C
:104890000A2100244143545404464034881844807B
:1048A000037210BD0072FF1F0A7802700A88120A94
:1048B00042708A7882704A88120AC2700A7902713C
:1048C0008A88120A42718A798271C988090AC1717B
:1048D00008207047F8B505460C4648680421FBF7E8
:1048E00061FC217A017021890346401C090A01708C
:1048F000217841702188090A8170207A001DC2B296
:10490000FB2A36D81C48854215D114461E460C2079
:10491000FBF71EFC01000CD09020087002200871EB
:104920004D808E601548CC800078FBF7EDFB0027AA
:104930001DE013271BE05C201149684344182646FC
:104940004036307E002806D008465C30416A072792
:10495000491C41620BE02146284600F095F90746C4
:10496000307E002803D121462846FBF763FC3846F9
:10497000F8BD0220F8BD0000FEFF00007555FF1FC6
:104980007C72FF1F10B50A4A00210A234B439B1873
:104990005C88002C06D01B79834203D10A20414356
:1049A000881810BD491CC9B20329EED3002010BDE0
:1049B0000072FF1F002141800170704770477CB575
:1049C00004000FD0608800280CD0002500950195C8
:1049D0001323E188207A172200F028F8FF20607264
:1049E000658025707CBDF8B5074615460E4610203B
:1049F000FBF7AEFB040017D0A020207000206070F1
:104A00006680002D05D00C222946201DFBF710FBE7
:104A100004E00C220021201DFBF722FB2146384632
:104A2000FBF772FB0020F8BD0120F8BDFFB581B097
:104A30001E46174614200B9DFBF78AFB04001AD074
:104A4000A22020706770029860800A9820716671B9
:104A5000002D06D020460C2229460830FBF7E8FA44
:104A600005E020460C2200210830FBF7F9FA214628
:104A70000198FBF749FB05B0F0BD022A1CD34B7827
:104A80000A781B02D21892B20280012A02D0022AAE
:104A900006D00FE08A78C97809025118418009E0F0
:104AA000CB788A781B02D21842800A7949790902A8
:104AB000511881800020704701207047F8B50646E4
:104AC0004D88002070600A790C46022A12D0290114
:104AD00060480091415A002906D0009B1F18BB680E
:104AE000002B01D0012A7DD05A486C304169491C05
:104AF0004161A9E0E288042A43D3A06843780178A1
:104B00001B02C91889B20091C37881781B02C918A9
:104B10008FB2017AC079000208184F494880009985
:104B2000091D8A4220D1072F13D0052F11D0042F41
:104B300002D0062F25D10CE046482901405A002812
:104B400007D02846FDF722FA42486C300169491C1B
:104B500001610098308137800321C943A068FBF7C9
:104B600021FB70600020F8BD072F18D0052F16D04C
:104B7000042F07D0062F12D036486C30C168491C6C
:104B8000C16064E033482901405A002807D0284614
:104B9000FDF7FCF92F486C300169491C01612D4972
:104BA0002D01002048536E180098B081B7800098FE
:104BB000FDF750FAB060002818D00321C943A0685F
:104BC000FBF7F0FAE2880146224F121FB068FBF7AC
:104BD0002FFA785BE1884018001F785338466C3014
:104BE000016800E008E0491C016030E019486C30C1
:104BF0008169491C81612AE0E2888918009A89B29A
:104C00008152BA8991421AD80546B868E28840189C
:104C1000801AA168FBF70CFA0098295AB8898142DA
:104C200015D13081B8883080B86870600099002054
:104C3000685208486C304168491C416007E00548EB
:104C40006C308168491C81602846FDF79FF901207E
:104C5000F8BD00006C72FF1F9055FF1F022A01D0A3
:104C6000012070470A784978090251180180002014
:104C700070470A7802704A7842708A78C9780902C7
:104C80005118418070470000FFB50C4607463D496A
:104C9000A1208000096878434018FF30C130067EAB
:104CA00089B015463846FBF75BFE001DB04204D2C2
:104CB0003846FBF755FE001DC6B2B54207D82A4656
:104CC000002138460C9BFBF7BBFA0DB0F0BD314616
:104CD0002846FBF791FA2746403738740C996165EE
:104CE00001467143691AC9B202910C990491029963
:104CF000002901D0401C3874002523E002990029C6
:104D000004D0401EA84201D1084600E03046E90028
:104D1000059103916054FDF7D1F803990919486092
:104D200000281BD00599625C0499FBF781F905986E
:104D3000215C0498081804901348C169491C6D1C33
:104D4000EDB2C161387CA842D8D8606D002803D08C
:104D5000FBF71CFA002060650020B6E700203874DD
:104D60000646606506E0F00000194068FBF70EFAA1
:104D7000761CF6B2AE42F6D30348C16A491CC16242
:104D80001320A2E73409FF1FD872FF1FF7B586B0C2
:104D900016460D464878FFF7F5FD040010D00027B1
:104DA00027712878012802D0132809D105E06A88E4
:104DB000314602A8FFF761FE0AE02078032802D0FE
:104DC000002009B0F0BD6A88314602A8FFF746FF0F
:104DD0000646204600F046F902A8019000972B787D
:104DE000207A32460699FFF721FE2046FFF7E2FDC2
:104DF0003046E6E7FEB50446468801466846FFF7BA
:104E00005DFE0546019800282FD0684600880528D9
:104E100006D0042809D0062807D0072805D026E0A8
:104E20006946304600F030F821E081001548081846
:104E300001464039098E002919D02038807C6A4605
:104E40003146FFF7D0FD002811D1684600880428BC
:104E500003D001213046FDF735F8012D04D1A068BB
:104E6000002801D0FBF792F9FEBD012D04D1A06806
:104E7000002801D0FBF78AF901213046FDF722F81E
:104E8000FEBD0000F071FF1F30B50546088987B0F0
:104E90000C46042817D302A86168FFF7EAFE6846AB
:104EA0004089172837D82189001D81421ED16846C4
:104EB000007AC10709D0626802A92846121DFFF7CF
:104EC00065FF002812D107B030BD6168091D1228A6
:104ED00005D0002069460880497A6A4622E0684683
:104EE000428903A8FDF71EF8002803D02846FFF7E3
:104EF00065FDE8E70D4881880029E4D06946497AD4
:104F000003AA0192009169460B7A80790022294612
:104F1000FFF78CFDD7E7012168460180172141800A
:104F2000417A6A462846FCF7B1FFCCE7F071FF1FD3
:104F300070B5144C00262680A681A680A068354650
:104F4000002802D0FBF722F9A5600E4C1034204651
:104F50004030057445740576606D002802D0FBF77B
:104F600015F965655C20002546433419E8002018D2
:104F70004068002801D0FBF709F96D1C0A2DF5DB0C
:104F800070BD00006C72FF1FFFB589B015460E465C
:104F90001720129FFDF75EF8040021D068460670C6
:104FA0004570002F03D0201D0C99B84700E0002069
:104FB00069464880267065704888A070010AE170D3
:104FC000052269468A82001D0694888305A90998EE
:104FD000FFF780FC050004D02046FBF7D7F800E07F
:104FE000132528460DB0F0BDFFB581B01E4605461D
:104FF00001210A9F0B9C00F02BF9002811D02046BC
:10500000FFF736FC00280AD0C58004460770124816
:105010004178491C0A06120E427004D005E015259D
:105020000FE014250DE001224270227100962846FF
:10503000039B0299FFF7A8FF050005D02046FFF764
:10504000B9FC284605B0F0BD23462146034A093382
:105050000348FBF7FBF8F4E79055FF1F307500009D
:10506000BF49021110B50446407AFBF7CBF8FF2088
:10507000607210BD10B500240F22835C5B002343D7
:105080008B54835C521EDC0952B2002AF5DA10BD43
:10509000FFB581B01E4617460D46084600F04AF897
:1050A000002802D0112005B0F0BD0E4800F042F8F3
:1050B000040015D00A98A0710622E01D0B99FAF79A
:1050C000B7FF6580277166710198207000206062CB
:1050D0000C98E0810021284600F072FA0020E2E7F7
:1050E0001520E0E7FFFF000070B514460D460646A8
:1050F00000F020F800280BD0416A007900290CD07C
:10510000C20611D580070AD4002C08D0052070BD36
:10511000074886420AD0142070BDC006F6D5887EA6
:10512000A84203D20C2070BD0F2070BD002070BDBE
:10513000FEFF0000084A002128234B439B185B8890
:10514000834203D12820414388187047491C09062F
:10515000090EF1D0002070472072FF1F30B50B4CB4
:105160000B4B002128224A43D5186D88A54206D052
:105170009A5C824203D128204143C81830BD491CA3
:105180000906090EEED0002030BD0000FFFF000030
:105190002072FF1F10B500200B4C0C4B014628223B
:1051A0004243D2185480401C117100065162000E17
:1051B000F5D0064A002028328300401CC0B2D150EE
:1051C0000528F9D310BD0000FFFF00002072FF1F6B
:1051D0000020074A014628234B439B181B79002BCC
:1051E00001D0401CC0B2491C0906090EF3D070471B
:1051F0002072FF1F074A00218B00D358002B05D0D7
:10520000491CC9B20529F7D31320704789005050B3
:10521000002070474872FF1F10B5FFF78BFF040096
:1052200013D06088012100F0CBF9606A002801D01A
:10523000FAF764FF282200212046FAF711FF002028
:10524000C04360800020207110BD022010BD00000E
:1052500010B50C460649884206D0FFF76BFF0028C0
:1052600004D00079204201D0012010BD002010BDE3
:10527000FEFF00000748416B0806020F0648427017
:105280000A05120F82700A0B0902C270090F017120
:105290007047000000F00040B96FFF1F097A02203C
:1052A000C90600D508207047FEB515460A7A0024C5
:1052B000089E920601D50820FEBD0A78022A0AD06F
:1052C00048891349498D884203D1D9B2284600F054
:1052D00049F82046FEBD4A68177852781202BA187B
:1052E0000C4F92B2BA42F4D101220192DBB2009685
:1052F0002A46FCF7B7F90400EBD16978287809024F
:10530000401880B2012800D0002003490870E0E76F
:105310003453FF1F02290000596FFF1F10B50848C2
:10532000FFF768FFFFF7A6FF06490748FCF782F979
:105330000448064A06210830FCF7F6FA10BD0000C2
:10534000014802112C53FF1FFFFF00009C6F021148
:1053500010B515210020FAF77FFFFF20F530FAF78E
:1053600081FF10BDF0B58FB00546002768460E4698
:105370000777142942D80A46294608A8FAF758FEA2
:1053800008A8854C0178204611300190203000900B
:10539000062978D008DC012910D0022936D003294B
:1053A00072D0052908D193E007296ED07A480B38CE
:1053B000742957D075296DD0692024E0774C607826
:1053C00000281BD06878A77000F020FA0006000EB5
:1053D0006946087714D1032E03D0FFF7B9FFFAF717
:1053E00023FFA878012803D0FFF7B2FFFAF71CFFCC
:1053F000012107A800F0F8F80120A0700FB0F0BD5F
:10540000012107A843E069460877F9E71422002143
:1054100002A8FAF725FE6846077202ACC120800098
:10542000611CFBF735FC5C486030017900290AD02B
:10543000C2786031019100928378427858A1E01DD2
:10544000FAF716FF07E0C17800918378427857A1F8
:10545000E01DFAF70DFFE01DFAF710FF0830C1B2AA
:1054600002A814E00278761EB2422FD1002A2DD075
:10547000691C401CFAF7E8FD012827D1474948700C
:1054800068460777BCE741E020E061E002E000F019
:10549000ABF8B3E769780F2918D102780446002ADF
:1054A00014D00A2A12D84448029703970497059704
:1054B00000683949019001A80B390130521CFAF7F4
:1054C000B7FD2078801CC1B201A8E0E705209AE76B
:1054D00010220021FAF7C4FD08A91022013100981A
:1054E000FAF7A6FD1021601CFAF7CEFE2A4810221A
:1054F000213000210546FAF7B3FD2A46611C2F48EA
:10550000FAF790FD10222946712019E0102200219F
:105510000198FAF7A5FD08A9102201310198FAF7C0
:1055200087FD02AA25480199FAF77CFD102202A8FE
:105530000099FAF789FD002805D01022611C72201D
:1055400000F069F85AE7FFF703FFFAF76DFE55E739
:1055500011481022413000210546FAF781FD08A9C3
:10556000102201312846FAF763FD02AA611C019856
:10557000FAF758FD084A02A9513214460F48FAF7C3
:1055800051FD102229462046FAF75EFD0028DAD0A8
:10559000102221467320D3E7596FFF1F2853FF1FA6
:1055A0005625642E25642E25642563005625642E19
:1055B00025642E2564000000986F0211C471FF1F3E
:1055C000F8B5084D0E4607460024A0002A58002AC8
:1055D00002D0314638469047641CE4B2052CF4D31F
:1055E000F8BD00004872FF1F30B5BFB00C4605463D
:1055F000F82200216846FAF733FD142C09D86846D2
:1056000044802246294601A8FAF712FD684600F0B8
:10561000C1F83FB030BD70B5BEB015460E46044669
:10562000F82200216846FAF71BFD142D0CD8681CDF
:10563000694648800C7101A82A4631460130FAF7C4
:10564000F7FC684600F0A6F83EB070BDFFB581B02B
:105650000298FFF76FFD040069D002983549860073
:105660008A59002A63D0136A1820002B00D03420F6
:10567000936A002B00D01430049B002B00D01C3008
:10568000516A002900D01630FAF762FD05004ED0AD
:1056900018220021FAF7E4FC2620FBF7B5FD0700ED
:1056A00000D12778D0202870019868700A20A8704F
:1056B0000298A8800398A8711E482C468059183477
:1056C000006A002808D01B49AC60895920461C3468
:1056D000096A1C22FAF7ACFC16488059806A002837
:1056E00008D01449EC60895920461434896A142280
:1056F000FAF79EFC0498002806D02C6120461C3442
:105700001C220499FAF794FC0A488159496A002935
:1057100006D06C6180591622416A2046FAF788FC4F
:10572000F8B22946FAF7F0FC0298FCF7CBFE05B078
:10573000F0BD00002855FF1FFFB581B01D4617467C
:1057400014200E9EFAF704FD040020D0D020207013
:10575000019860700520A070E770002D05D006222A
:105760002946201DFAF764FC04E006220021201DD2
:10577000FAF776FC0A9860810B98A0810C98E0817A
:105780000D982082A67421460298FAF7BDFC05B058
:10579000F0BD000038B5044669460E48FBF778FABC
:1057A0006A460D491088FCF7B7F86A4611880B4A1B
:1057B00091420CD0C0070AD00748002248304089E7
:1057C0002080684621460088FCF71AFA38BD12206E
:1057D00038BD00000E0300002C53FF1FFFFF000028
:1057E000F8B506461C4615460F460820FAF7B0FCE9
:1057F000010009D0D02008704E70062088708D807E
:105800008C713846FAF780FCF8BD0000032803D9F4
:10581000062801D0062070470149486300207047E0
:1058200000F0004010B50446084884420DD001291C
:1058300007D0022909D101212046FFF709FD0028E0
:1058400003D103492046FBF7F5FE10BDFEFF000023
:10585000A053FF1F70B516460A7A00240498D2069A
:1058600001D5082070BD002801D00B2070BD0A783A
:105870000020022A03D018800124204670BD4D6804
:105880002A786D782D025219064D92B2EA4206D15D
:1058900014221A80C9683046FAF7CAFBEDE718806F
:1058A0000A24EAE70C00FFFFFEB515460E7A002435
:1058B000089AB60601D50820FEBD0E78022E01D04A
:1058C000012428E04E68377876783602BE19174FE3
:1058D000B6B2F61921D01648C64203D1002A03D029
:1058E0000B2418E00A2416E0142B01D90D2412E031
:1058F000C8681A462946FAF79BFB0E48042100782F
:10590000FAF7D2FB0C4900204968002903D0096846
:10591000002900D088472046FEBD01240092DBB25A
:1059200001942A46FBF79EFE0446F4E7FED6FFFFED
:105930000F29FFFF4954FF1F9853FF1F00784107AD
:105940008207C90F920F89000006C00E1143C000E4
:105950000843704701468A000849102089580029E9
:105960000AD00A6A002A07D08968002904D0107A70
:10597000097E884200D30846704700009855FF1FF3
:1059800010B50246014620321031FAF783FC10BDF3
:1059900010B5FAF77FFC10BD7FB50D4604468100B7
:1059A0000948405800280ED0014668314EC9039678
:1059B0006E460EC6037FC28801782846FCF7F0FDCC
:1059C000204600F003F87FBD9855FF1F70B50446D0
:1059D00000F0BEFCA500134C6059002821D0006ADD
:1059E000002801D0FAF78AFB6059806E002801D0A8
:1059F000FAF784FB6059C06E002801D0FAF77EFBED
:105A00006059006F002801D0FAF778FB6059406FA9
:105A1000002801D0FAF772FB6059FAF76FFB0020FB
:105A2000605170BD9855FF1F7FB5084D84002959FE
:105A3000102268462531FAF7FBFA2859044BC08832
:105A40006A46112100F014FC04B070BD9855FF1F88
:105A5000956702117FB50C4C85006159002910D063
:105A6000694600F029FC60590178C088002901D0FE
:105A7000064B00E0064B6A46072100F0F9FB04B034
:105A800070BD0120FBE700009855FF1FF167021170
:105A90008368021170B50D46064600240AE0FAF745
:105AA000FFFB010A3155641CE4B2AC4202D230550E
:105AB000641CE4B2AC42F2D370BD00007FB5084D67
:105AC00084002959102268463531FAF7B1FA28596D
:105AD000044BC0886A46112100F0CAFB04B070BDB7
