:020000041102E7
:1000000003B40148019001BDADAE000003B4014846
:10001000019001BD456B010003B40148019001BD91
:100020000189000003B40148019001BDC53F0000F3
:1000300003B40148019001BDE94C010003B401483B
:10004000019001BDC95C010003B40148019001BDEC
:10005000CD4C010003B40148019001BD618900004D
:1000600003B40148019001BD154D010003B40148DE
:10007000019001BDF54E010003B40148019001BD9E
:10008000434D010003B40148019001BD2526000045
:1000900003B40148019001BD8B52010003B4014833
:1000A000019001BDB352010003B40148019001BDAC
:1000B0000D52010003B40148019001BDC94A01007D
:1000C00003B40148019001BD691F000003B4014859
:1000D000019001BD5D17000003B40148019001BD0E
:1000E0003D4B010003B40148019001BD595201008C
:1000F00003B40148019001BD5125000003B401483B
:10010000019001BD014C010003B40148019001BD03
:10011000594F010003B40148019001BD1D4B01007E
:1001200003B40148019001BD8D12000003B40148E1
:10013000019001BD4D1F000003B40148019001BDB5
:100140005522000003B40148019001BDDD520100B9
:1001500003B40148019001BD1D4D010003B40148E5
:10016000019001BD810E000003B40148019001BD62
:10017000017F000003B40148019001BDE1170000B8
:1001800003B40148019001BD7918000003B401488F
:10019000019001BDD949010003B40148019001BD9E
:1001A000E928000003B40148019001BD5549010050
:1001B00003B40148019001BD4551010003B4014859
:1001C000019001BDC926000003B40148019001BDA2
:1001D0001135FF1F03B40148019001BD1DBC000093
:1001E00003B40148019001BD6DBC000003B4014897
:1001F000019001BD3555000003B40148019001BDD7
:10020000C51D000003B40148019001BDF94C010077
:1002100003B40148019001BDC521000003B40148A9
:10022000019001BD291C000003B40148019001BDEB
:10023000851F000003B40148019001BD090E0000B4
:1002400003B40148019001BD1147010003B4014806
:10025000019001BDB30E000003B40148019001BD3F
:100260005938FF1F03B40148019001BDED3AFF1F4B
:1002700003B40148019001BDAF20FF1F03B4014842
:10028000019001BD8920FF1F03B40148019001BD09
:10029000A946010003B40148019001BDB13E000030
:1002A00003B40148019001BDC529FF1F03B40148F3
:1002B000019001BD2124000003B40148019001BD5B
:1002C000D929FF1F03B40148019001BDC90E0000E8
:1002D00003B40148019001BD055E000003B401486C
:1002E000019001BDE548000003B40148019001BD43
:1002F0002951010003B40148019001BDD91B000040
:1003000003B40148019001BD3121FF1F03B401482E
:10031000019001BD5921FF1F03B40148019001BDA7
:1003200051470100F8B5D449D24A002004464A603A
:100330008300401CD450FF28FADD4868CF4A0146AC
:1003400080318A606E22C262CD4A1278002A01D0C2
:100350007F22C2620A220265CA4A13788363CA4BAB
:10036000C36115781023022D08D01578012D05D012
:100370001578032D02D01578042D00D10362C34DEA
:1003800045611925AD0185613725CD6036272826C1
:10039000C7630825466405644F6032270F603B271A
:1003A000CF634127CF6439274031E0C132274F6006
:1003B00002274F6142270831E0C11E274F60CE60FF
:1003C0008D6005264E6142260E615A2660390E6107
:1003D0004D613C258D61AF25ED000560AC4D056399
:1003E0001578022D09D01578012D08D01578032D28
:1003F00007D01578042D06D007E0152504E04360EA
:1004000003E00E2500E00C254560FF252D358560B5
:10041000C560FF25F53505619E4D85647D25ED00A0
:100420009D4ECD67C66445629C4D85627325C5654A
:10043000062545658565C51D0826F93502272E6008
:1004400047664B27FF0087660927C766944F0767F3
:100450004667BE108467C667924F8F4E3E6016781F
:10046000022E09D01678012E0AD01678032E0BD052
:100470001278042A0CD00EE01A22CA61212205E06B
:100480001422CA61182201E01322CB610A6202E041
:100490000E220B62CA617F4A8A627D22D2008A677D
:1004A00064224A620522CA6202220A63C8228C635D
:1004B0004A63382169607C4929647C49A9614B21E0
:1004C000C900E96174497B4A643929627D210901C7
:1004D0006962EC661E212C67A9667149A965E96508
:1004E00089102966696469677149EA67A967724971
:1004F000FF30813006C00160FF21F531416081602D
:100500006F486E495B4A81606E49803A11616C495F
:100510006D4A80318A626D4ACA626D4A82616D4A53
:10052000C2626D4A026366486C4A403842636C4A54
:10053000C2636C4ACA616C49816361496B4840314E
:1005400088616C496A4888605D486B4A80384260BF
:100550006A4A42636A4A0A626A49816058496A483B
:10056000C039C860FFF74CFD0120FFF74FFDF8BD13
:10057000F3B50746654881B0C169654A1140FF314E
:100580000931C161002613E000252C461120FFF738
:1005900043FD5E48406A8007800F61008840284321
:1005A000641CE4B20546102CF0D301C7761CF6B2E9
:1005B00002988642E8D3FEBD10B52F4C6078002823
:1005C0000AD104215348FFF7D3FF524804211030C9
:1005D000FFF7CEFF0120607010BDF0B500248BB096
:1005E0000D460646102902D901200BB0F0BDFFF7D9
:1005F000E3FF484900200A5C401C1419C0B21028CF
:10060000F9D3002C03D0102D03D90B20EDE70E20D9
:10061000EBE741483F4C0023006802A91034E25C3C
:10062000C75C7A40CA545B1CDBB2102BF7D306AA16
:100630003848FFF7F7FC102D00D910252A4606A9E7
:100640003046FFF7F5FCFFF7F9FC21684018206001
:10065000FFF7F4FC616840186060FFF7EFFCA168E9
:100660004018A060FFF7EAFCE1684018E060002055
:10067000BBE700000004FF1FC851FF1F5074FF1F9D
:10068000C84EFF1F4A0AFF1F3A07000080C3C90176
:100690009A02000050C30000280A00006A180000F7
:1006A000204E0000F009FF1F0040001168100000FC
:1006B000DC05000040420F0010270000913FFF1FA3
:1006C0000001FF1F1925FF1FFD43FF1FE946FF1F04
:1006D0008121FF1F1523FF1F9D21FF1F6930FF1F71
:1006E000C12FFF1FA54CFF1FC94AFF1F0921FF1F74
:1006F000D528FF1F0002FF1F093CFF1FE53DFF1F1C
:10070000293DFF1FC53BFF1F0529FF1F40F000408B
:1007100000FEFEFFD86EFF1FE851FF1F0A7802702F
:100720008A7842704A88120A82700979C17004205E
:1007300070470A7802700988090A417002207047E0
:1007400010B500220EE093005B189C7804705C8862
:10075000521C240A44701C7984709B88D2B21B0AF4
:10076000C370001D0B789342EDD81806800D10BDA4
:10077000F8B50D4606464978012031700024761CF4
:1007800016E06978012917D01221614349198A7846
:1007900032704A88871C120A7270B61C10223046CA
:1007A000091DFFF745FC1037B8B21036641CE4B2DF
:1007B0002978A142E5D8F8BDA10049198A7832709C
:1007C0004A88871C120A7270B61C02223046091D24
:1007D000FFF72EFCBF1CB8B2B61CE7E710B50C46FD
:1007E000097801702188090A41706288211D801CE6
:1007F000FFF71EFC6088801C80B210BD10B50C464F
:10080000097801702188090A4170A1788170618896
:10081000090AC170A288A11D001DFFF709FCA0886C
:10082000001D80B210BD10B50C460A88891CFFF768
:10083000FFFB208810BD10B50B788A7802705343F7
:10084000DCB22246401C091DFFF7F2FB601C10BD04
:1008500010B50B788A7802705343DCB22246401CF4
:10086000091DFFF7E5FB601C10BD10B50C460A889A
:10087000891CFFF7DDFB208810BD10B50C460A88E7
:10088000891CFFF7D5FB208810BD7FB515460446AF
:10089000022901D0102903D1022B04D0102B02D041
:1008A000002004B070BD994202D10A46294607E0F3
:1008B0001029694607D000F00DF810226946284635
:1008C000FFF7C2FBEDE7104600F004F8102269467E
:1008D0002046F5E770B50C4605000CD0002C0AD078
:1008E000102206492046FFF7A3FB2878207368787A
:1008F0006073012070BD002070BD00003C720211C9
:1009000010B50B460122024901F024FE10BD000083
:100910001D07021170B5064608880C46172812D329
:100920000B4603220949304601F014FE050008D1A8
:10093000074920880988884200D20146304600F0E5
:10094000B7F9284670BD022070BD000033070211C0
:10095000F651FF1F10B500231922194601F0FAFDC8
:1009600010BD000010B50A78002A05D00B460722FA
:10097000024901F0EFFD10BD022010BD4107021138
:1009800010B54A78012A01D0022A08D10A78002A33
:1009900005D00B460522034901F0DCFD10BD022005
:1009A00010BD00007107021101494000085A70474C
:1009B000F451FF1F10B50B461B22024901F0CAFD7E
:1009C00010BD0000DD0702110149172008807047A3
:1009D000F451FF1F0098022B01D0042070471178BA
:1009E0005278120289180180002070470098012B6C
:1009F00001D004207047117801700020704770B555
:100A0000049C1E461546062B1BD3697828780902DC
:100A100040182080E978A8780902401860800222F6
:100A20002271291D601DFFF703FBB61FB2B22281A0
:100A3000F02A06D82046A91D0A30FFF7F9FA00204F
:100A400070BD042070BD0098042B01D004207047B5
:100A5000537811781B02C91801809178D27812025C
:100A60008918418000207047F8B584890D460646F4
:100A7000002C26D0B2681778380620D50C2C20D947
:100A80000C3CA4B21019009001217088234601F09B
:100A9000E9FB002811D0022028707806C00F68708A
:100AA000B806800EA870641E2004000CA88001D037
:100AB000B068401CA8600020F8BD0120ECE70020D1
:100AC000EAE70120F8BD10B502981146042B14D3B3
:100AD0004C780A78240212190280CC788A78240291
:100AE000121942801B1F9AB28280F22A05D8801DFB
:100AF000091DFFF79DFA002010BD042010BD0098CD
:100B0000042B01D004207047537811781B02C918B8
:100B100001809178D27812028918418000207047B4
:100B200010B502981146062B03D0142B03D00420D5
:100B300010BD022200E0102202714B780A781B02DD
:100B4000D2180280CB788A781B02D21842800279B0
:100B5000401D091DFFF76CFA002010BD30B5039C45
:100B6000D80718D1D805010E022914D30B48808864
:100B7000814210D8F6200155002008E055781378FE
:100B80002D025B194500401C6353C0B2921C884281
:100B9000F4D3002030BD042030BD0000EE51FF1F13
:100BA0000098022B01D0042070471178527812026D
:100BB000891801800020704770B5144602460498D9
:100BC000022B18D3667825783602AD1905800546C4
:100BD000E0352A766976002A0BD0E8219B1E9AB26E
:100BE00042808A4207D8A11C001DFFF721FA00208D
:100BF00070BDF421F2E7042070BD000010B50B4673
:100C00001722024901F0A6FC10BD0000FD070211E9
:100C100010B50B460D22024901F09CFC10BD0000EE
:100C20002708021110B50A78002A05D00B461122B8
:100C3000024901F08FFC10BD022010BD37080211DF
:100C400010B50A78002A05D00B460922024901F0A6
:100C500081FC10BD022010BD5108021110B50B46D9
:100C60000F22024901F076FC10BD00006B08021152
:100C700010B50B460B22024901F06CFC10BD0000C0
:100C80007B080211F72800D9F720084A0146108096
:100C9000401EC3179B0F18188003000C5080491E7C
:100CA000C80F4018C003000C90807047EE51FF1F22
:100CB000044A1288914203D8024A4000921D115200
:100CC00070470000EE51FF1F10B500231322194694
:100CD00001F040FC10BD000070B50C460146032039
:100CE00000020A1A002534481300FFF7B3F91D105B
:100CF00012151C1F2326282C303234383A3C3E4033
:100D0000424446484A4E50525A5456585A00C079A6
:100D100011E01022294902E0284910221031204612
:100D2000FFF786F945E0C06A206042E022490622CA
:100D30003C31F4E7007820703BE0808936E01E49C2
:100D400042784231EBE71D4982781F39E7E7007AA4
:100D5000F1E7407AEFE7184906223031DFE7807A81
:100D6000E9E7C07AE7E7C08920E0808A1EE0C07822
:100D70001CE0C08A1AE0008B18E0408B16E0808BE4
:100D800014E00D4906223631C9E7C08B0EE0008C15
:100D90000CE0408C0AE08079CDE7008A06E0408ACA
:100DA00004E0272904D2084600F052FA208000E02F
:100DB0000225284670BD0000944FFF1F7969FF1F70
:100DC00070B50E4C00256071A571691EE18100F0BF
:100DD0006FFB0420E071102200210948FFF740F961
:100DE0000748102200211030FFF73AF9E56225721A
:100DF00065720720A072E57270BD0000944FFF1F5E
:100E00007969FF1FFEB53B4D0C4608040CD5687987
:100E1000FFF72CF9050004D002F02AF92846FFF765
:100E20002BF90120C00360E0600403D5012080039A
:100E30004840FEBD2F48E1070126807900292AD0CD
:100E40002978002920D0052821D0297A6846017008
:100E5000697A4170274906223031801CFFF7E8F893
:100E6000A97A68460172E97A41726946687900F0A8
:100E70000BFA002808D00720A871696A002903D05E
:100E80000968002900D0884720467040FEBD032035
:100E900069460870E4E7A1070DD5052809D1E8895E
:100EA000FFF7F0F8AA8A002A03D002216879FFF739
:100EB000EFF8022019E0600704D5002002F018F9CD
:100EC000042012E0200712D52879012802D0022838
:100ED0000AD107E00096AB8B6A8B298BE88A00F079
:100EE0000BF801E000F05AF908206040FEBD002038
:100EF000FEBD0000944FFF1FF8B5134C069EA57968
:100F0000052D01D01420F8BD104F851FBD4219D208
:100F1000062917D3BD1DA94214D2FF27F537BA42BF
:100F200010D20A2B0ED3AB420CD2E0822183628313
:100F3000A383304602F0DCF804216079FFF7AEF8B5
:100F40000020F8BD1820F8BD944FFF1F7A0C000058
:100F5000F7B50D4680490098164642187F4F002489
:100F60007879B9791300FFF775F8190E141BE92089
:100F700040455970777E888FE996A2A9B4BFC8E929
:100F8000E9E9E9D3E900102D76D110223146744801
:100F90006FE0102D70D1724810223146103068E099
:100FA000042D69D13068F862CEE0012D64D13B7820
:100FB00032783A70002B0AD0002A07D1022903D0D8
:100FC000062901D0042901D100F018F9BCE0002A5B
:100FD0000AD0012905D0032903D0052901D004290D
:100FE00002D10121FFF760F8AEE0022D44D1308834
:100FF000B881A9E01F2D3FD858481F220021423058
:10100000FFF72EF855482A4631464230FFF710F8D0
:10101000524B7D7042332A46012112E01F2D7CD8AD
:101020004F481F2200211F38FFF71AF84C482A4664
:1010300031461F38FEF7FCFF494B2A461F3BBD7067
:101040000021787900F0AAFA83E0012D65D130788B
:10105000042862D8387277E0012D5ED130780328F9
:101060005BD8787270E0062D57D13C480622314695
:101070003030FEF7DDFF67E04FE0012D4DD13078D5
:1010800007284AD8B8725FE0012D46D1307803288E
:1010900043D8F87258E0022D3FD13288BA82002A34
:1010A00052D0052950D10221FEF7F2FF4CE0012D6C
:1010B00033D13078012830D8F87045E03088022DDF
:1010C0002BD1062829D31921C901884225D8F882B5
:1010D0003AE03088022D20D106281ED31921C901FB
:1010E00088421AD838832FE03088022D15D1FF218D
:1010F000F531884211D2788326E03088022D0CD158
:101100000A280AD31921C901884206D8B8831BE0EE
:101110003178012D01D1012901D0182414E00821D2
:10112000FEF7C8FF002801D016240DE0002001F0D2
:10113000DFFF04217879FEF7B1FF05E0009827284A
:1011400001D2022D02D002242046FEBD318800F0DB
:10115000D5F90446F8E70000FFFCFFFF944FFF1F9E
:101160007969FF1F1CB50B4CA179002901D0112012
:101170001CBD002800D06062064907482C31034698
:1011800001910090103B0022E179607900F016F89F
:1011900000201CBD944FFF1F8969FF1F10B5064832
:1011A0008179052901D0122010BDC189132240790F
:1011B00000F0B4F910BD0000944FFF1FF8B51D46B4
:1011C0000224069F079E0B00FEF744FF0D1508152D
:1011D00015081515151515151508150000F0B8F8A2
:1011E000040008D132463946284600F067F900F07D
:1011F000CBF801F027F82046F8BD000070B5104C80
:101200002168002904D00978814203D0032070BDF1
:10121000122070BD0B4D02212878FEF73FFF0A48CF
:101220000026468004212878FEF738FF074806800C
:101230002168032048700020FEF742FF70BD0000C7
:10124000C052FF1F8152FF1F6452FF1FFE51FF1F3C
:10125000272803D202494000085A704701487047C6
:101260000652FF1FFFFF000010B5064C607004F02F
:10127000A7F86078FEF72AFF0521607800F0BCFE31
:1012800010BD00008052FF1F70B5284E0546306823
:101290000C46002801D0112070BD2548017805209A
:1012A000014216D023488068002805D00078002825
:1012B00002D0C80706D101E0102070BD00F044F84C
:1012C000002808D02078032805D0022803D0002861
:1012D00001D0122070BD0C20FEF7FEFE3060002809
:1012E00020D00570002141700A222146801CFEF7A3
:1012F0009FFE01F0E1FF040002D001F0EDF912E0E1
:101300000D48007803280ED11D20FFF7A1FF0B49DF
:101310000028088007D00B48094A04210078FEF70E
:10132000E1FE00E01324204670BD0000C052FF1F04
:10133000FB51FF1F6452FF1FFC51FF1FFE51FF1F97
:1013400060EA00008152FF1F10B504F057F810BD8D
:1013500070B50C4605461C2200210948FEF780FEA8
:10136000084805704470FEF7C3FE0549002803D005
:1013700000200870122070BD01220A7070BD0000AC
:10138000086FFF1FFA51FF1F70B50F4C0025A068B2
:10139000002802D0FEF7B2FEA560E068002802D067
:1013A000FEF7ACFEE560094805210078084206D04A
:1013B0000548103001F062FD01F030F970BD0020E9
:1013C00001F05CFD002070BD6452FF1FFB51FF1F48
:1013D000FEB5344D0C46080419D56878FEF746FE74
:1013E0000121C9034C40064600280ED001F066FCDE
:1013F000002807D12878FF2804D03146FEF784FE64
:10140000002802D03046FEF737FE2046FEBDE0073A
:10141000012700280AD0A868002804D041680029C4
:1014200001D00020884720467840FEBDA00709D59E
:101430006868002804D04168002901D0012088474D
:1014400002202AE060072AD5174E308800281FD0D6
:10145000401E0004000C30801ED101F0AFF90028BE
:1014600009D0124807706868002804D04168002934
:1014700001D00120884701F07BF9694600F03CFE6D
:10148000684601F005FC1D20FFF7E2FE308003E016
:1014900004216878FEF702FE04206040FEBD0020B3
:1014A000FEBD00008052FF1FFE51FF1FFD51FF1FB8
:1014B00001490870704700008052FF1F70B50E4C44
:1014C0000B46261D07C60546102200211846FEF7CA
:1014D00021FE012803D11021A06804F017FC10227E
:1014E00000212846FEF716FE012803D1102160686E
:1014F00004F00CFC70BD0000086FFF1F272807D206
:10150000044A914204D0044A40001152002070471E
:1015100002207047FFFF00000652FF1FF8B50D467E
:1015200017461D4906461B4A1224C868954208D131
:1015300000282DD00268002A2AD02946304690473C
:1015400023E0144A521C954213D1002807D00268A8
:10155000002A04D0294630469047040005D0394679
:10156000304601F035F8040012D10B480670477080
:101570000EE0284603F0F4FE002809D00078B042BF
:1015800005D139462846FEF7CBFD044600E003248A
:101590002046F8BDFEFF00005452FF1FF8B50E466E
:1015A000014619481546007805221F46104028D0EC
:1015B000304326D01548012E1BD0C468002C20D003
:1015C0001F2D18D8002D01D0002F14D001701F221C
:1015D0000021601CFEF744FD2A463946601CFEF7D8
:1015E00027FD28462570002E07D0611CFEF79EFDC2
:1015F000F8BD8468E2E70220F8BD611CFEF79CFD9F
:10160000F8BD1220F8BD0000FB51FF1F6452FF1F00
:10161000014610B50020C90704D0034A042103483D
:1016200000F0A6F910BD0000CC7102111850FF1F88
:1016300070B50F4D0F4CA87029461831204600F0A8
:101640001DF8002128460B461030CA00845212189B
:10165000491C09065360090EF7D0012002F00CFD69
:10166000A87800F023FB044803F0DAFE70BD000008
:10167000F84FFF1FFFFF0000B138021170B50A4C90
:101680000025A04209D1002082008C525218401C33
:10169000C0B295700228F7D370BD02F0D8F80028C8
:1016A000FAD00480857070BDFFFF0000F8B50E46CB
:1016B0000746069900240798002902D00B242046EB
:1016C000F8BD022B01D00D24F9E7117852781202EF
:1016D00089188DB22946814301D08024EFE738462E
:1016E000F16800F03DF9A842E9D02A463846F16891
:1016F00000F0A8F90400E2D171892A46384600F0CA
:1017000065F9DCE770B50C46080412D50A48807804
:10171000FEF7ACFC050008D02878B02802D1284696
:1017200002F0B2F92846FEF7A7FC0120C003604092
:1017300070BD002070BD0000F84FFF1FFFB587B0DF
:10174000087A0025109E1C460F46C0060DD5099844
:1017500002F076F8030006D00A2239460798984727
:10176000050035D101E00E2532E0387802281DD180
:10177000786829220178407812020002081880B2A5
:10178000811A90427ED009DC7249401A23D0012888
:1017900021D0022851D0032808D125E0012972D098
:1017A000022971D003296DD004296ED0099802F066
:1017B0006FF80028D7D00568002DD4D01299119861
:1017C000019100903346224639460798A8470546BE
:1017D00028460BB0F0BD1198002873D1F868017845
:1017E00031800278416897E0119800286AD1012081
:1017F0003080F8680021007820707889401C80B221
:1018000000F04EF900280FD0318802788918891C21
:101810003180817A61704189090AA170027841683A
:10182000E01CFEF705FCD3E730880422001D308061
:101830000021601CFEF714FCCAE71198002872D141
:10184000F86804A900880090042030800098207077
:101850000098000A6070009800F022F9070028D074
:10186000F86805906846028A03AB3B49384600F0A9
:101870006FF900280FD13B78022138487A68FFF7CA
:1018800004F803E027E031E01DE049E0002802D140
:101890003148694688810598007802280CD105985E
:1018A00002224168201DFEF7C3FB3088801C308077
:1018B00002E069460098888168468089A070000A25
:1018C000E07085E72FE0119800282CD1F96807987F
:1018D00000F046F804E01198002824D1F868008848
:1018E000022131802070000A607071E7F868FEF70D
:1018F00029FC1199C0B2814210D8814201D1002245
:1019000006E0129A8918814202D31199401AC2B294
:101910003280F96811980918204682E7072557E7B1
:101920001198002801D00B2552E70721F868318073
:1019300001782170417861708178A1704188090A2D
:10194000E1700179217181796171C088000AA0710B
:101950003EE7000000280000FFFF0000B272021105
:1019600010B501F074FF002800D0807810BD000091
:101970007CB51446050019D068460195018000F039
:101980009BF903001DD1002C1BD06D89002D0DD0BB
:101990000C20FEF7A1FB00280AD0002303608580FD
:1019A000094A84609168002904D006E0022308E017
:1019B000132306E0906004E011460A68002AFBD178
:1019C000086018467CBD0000F84FFF1FF8B50C4CAE
:1019D0000746207815460E46FF280FD00A20FEF74E
:1019E000B7FB01000AD0B1200870002048700871D0
:1019F0004F80CE800D812078FEF786FBF8BD000079
:101A0000F84FFF1FFFB583B008461F4601A90C9E83
:101A100000F046F8050012D06846808801F038FFD3
:101A200000280AD04468002C07D000963B4629467F
:101A3000059A0398A04707B0F0BD0E20FBE70120F0
:101A4000F9E7000070B514460E46054601F0FFFEAA
:101A5000002806D13146054801F0F9FE002803D0E0
:101A600005808470002070BD112070BDFFFF000054
:101A700010B50178B0290BD14178002908D101793E
:101A8000122906D01B2903D14088012100F03EFA1B
:101A900010BDFF210231095C0129F5D010BD000005
:101AA000F0B58C4610494B6819E09F687C89A042CC
:101AB00014D39E883119814210D900220CE0110103
:101AC0007D186989814205D16046002800D00480D4
:101AD0002846F0BD521C92B29642F0D81B68002BEB
:101AE000E3D10020F0BD00008C52FF1FFFB5174866
:101AF00081B00A9F446824E000251EE0A068290107
:101B0000461870890199884215D30299884212D8E3
:101B10000498002807D031787068049B039AFEF778
:101B2000B4FE002807D0002F02D0A068408938807A
:101B3000304605B0F0BD6D1CADB2A088A842DDD81E
:101B40002468002CD8D10020F3E700008C52FF1F3E
:101B5000FEB5174600256A469580044640891D4A11
:101B60001E46904208D001AA0092401C237880B201
:101B70006268FFF7BBFF05462378022116486268BA
:101B8000FEF783FE002807D12378022113486268FC
:101B9000FEF77BFE002801D060890EE02378022149
:101BA0000F486268FEF771FE00280DD0002D03D0AB
:101BB00068468088B84203D0384602F05BFB04E0F8
:101BC0006889401E80B200E06089002E00D030801D
:101BD0002846FEBDFFFF0000B0720211B272021172
:101BE000B672021110B505490870042100F004FA1C
:101BF00000F006F8FEF7E8FE10BD00009C52FF1F43
:101C000070B50E4C00200C4B651CFF228100C918DA
:101C100000280ED00D80401CCA70C0B28A70022805
:101C2000F4D3074801F0FEFD064803F0F9FB00205D
:101C300070BD0C80EFE700009452FF1FFEFF000014
:101C4000A541021125410211F8B50D46144606467C
:101C5000694601F043FC17280CD0002C06D0012265
:101C60001021304603F056FB002803D129463046A8
:101C7000FEF7A0FEF8BD000070B50C46080411D5B3
:101C800009480078FEF7F2F9050007D00178A0298D
:101C900001D101F06BFD2846FEF7EEF90120C003EB
:101CA000604070BD002070BD9C52FF1F014908704C
:101CB000704700008C52FF1F70B505460088002851
:101CC0001DD068680221037842682248FEF7DDFDD6
:101CD000002808D168680221037842681E48FEF790
:101CE000D4FD00280BD01D4C6088002805D00122AF
:101CF00029881204101A814203D9012070BD0220E4
:101D000070BD0C20FEF7E8F9060001D000200AE0C3
:101D1000132070BD02016B6861880A329952491C18
:101D2000401C618080B229888142F3D80020306055
:101D300008222946301DFEF77BF96068002802D191
:101D4000666004E0084601680029FBD106600020B7
:101D500070BD0000B0720211B27202118C52FF1FEE
:101D60000649496806E08A685289824201D188881A
:101D7000704709680029F6D1002070478C52FF1F78
:101D800010B51422114201D0012202E04A0604D506
:101D90000022102103F0BEFA10BDC80701D00020B8
:101DA00010BD022010BD10B514468A0604D50122CC
:101DB000102103F0AFFA10BD882211420ED0082284
:101DC0000A40102103F0A6FA00280BD0E034617E0F
:101DD0000029F0D0217E0129EDD103E0880701D44C
:101DE000032010BD002010BD014610B50020C9071A
:101DF00004D0034A07210348FFF7BAFD10BD0000D5
:101E0000B8710211204FFF1F70B50D461646002411
:101E10001D490300FEF71EF9080512343419342257
:101E20002934152D23D8162200211848FEF718F959
:101E30002A4631461548FEF7FBF822E0022D16D15E
:101E400011491088103908801BE0082D0FD10E4869
:101E5000082231460838FEF781F912E0012D06D13B
:101E6000CA6909493078283107E0012D01D01824CA
:101E700007E0CA6B04493078483102F0C2FA00E04A
:101E80000224204670BD0000204FFF1F4469FF1F41
:101E90000B7803700B8802221B0A43700B88801C8E
:101EA000012B02D0022B07D011E08A7802704988FA
:101EB000090A417004220AE08A7802704A88120AEC
:101EC00042700A7982708988090AC1700622104618
:101ED0007047000008B5044B009313460A460121E1
:101EE00003F068F908BD0000911E02111CB5032320
:101EF000019200930A46024B122103F08BF91CBD9C
:101F0000D54A021110B5FEF72FF910BD13B50448DC
:101F10000078012803D101AA6946FEF72BF91CBD00
:101F2000A852FF1F70B50F490F4A087000210B46D9
:101F30008C00491CC9B213530429F9D30A4C00215F
:101F40001034FF260A460A256A4315196B80491C7E
:101F5000A354C9B26E720329F4D3FEF711F903F04A
:101F6000FDF870BDA952FF1F246FFF1F082A01D082
:101F7000012070474B780A781B02D2180280CB7878
:101F80008A781B02D21842804B790A791B02D21838
:101F900082808A79C97909025118C180002070476E
:101FA00070B50C46080411D509480078FEF75EF8B4
:101FB000050007D00178902901D103F031F82846B7
:101FC000FEF75AF80120C003604070BD002070BDCC
:101FD000A952FF1F70B500280AD1064C00252580A4
:101FE000A581A580A068002802D0FEF7CFF8A560E3
:101FF00070BD0000A06FFF1F072907D0052905D07D
:10200000042903D0062901D002207047044A8B001E
:102010009A181346403B1986203A90740020704766
:10202000246FFF1F70B506001BD10E4C0025214602
:1020300040310D744D740D76606D002802D0FEF7AE
:10204000A5F865655C20002546433419E800201892
:102050004068002801D0FEF799F86D1CEDB20A2DFA
:10206000F4D370BDB06FFF1F70B50A880C460546EB
:10207000072A07D0052A05D0042A03D0062A01D052
:10208000022070BD012103F0F9F9002804D0214697
:10209000284602F035FD70BD142070BD10B5001D3E
:1020A00080B2FEF779F8002803D00321C943FEF778
:1020B00079F810BD8307FF22DB0E9A408907090ECD
:1020C000994000280BDA0007000F083883080848F9
:1020D0009B001818C36993430B43C361704783087F
:1020E00004489B001B181868904308431860704709
:1020F00000ED00E000E400E038B50C46050014D027
:10210000002C12D00321684603F000FE694688784F
:1021100040218006800E0843694688702246284682
:1021200004F02CFB050002D006E0022038BD03229B
:102130006946E01CFDF77CFF284638BDF7B58EB038
:102140000E9815460E4600282DD0002D2BD0301DA0
:10215000C0B20190FDF7C0FF040039D000F014FBBD
:1021600007463246201D0E99FEF722F8F8B2089075
:10217000E0703804000E0B90A0703802000E0A9038
:1021800060703F0E277000F0F9FA0146102202A895
:10219000FEF70EF806AB214602A8019A04F044FAB5
:1021A000060003D010E0022011B0F0BD089828709E
:1021B0000B9868700A98A870EF70082206A9281D6D
:1021C000FDF7F6FF00F0E6FA2046FDF797FF00E086
:1021D00013263046E8E7000010B5064C2070FDF7E6
:1021E000EDFF06212078FFF707FF034803F018F9F9
:1021F00010BD0000B852FF1F615D021170B50C46A2
:10220000080419D50D480078FDF730FF05000FD000
:1022100003F0C6FE002808D109480078FF2804D042
:102220002946FDF771FF002802D02846FDF724FF5C
:102230000120C003604070BD002070BDB852FF1F78
:102240008052FF1F10B505480078400701D50448AB
:1022500000E0002003F02CFF002010BDFB51FF1F09
:10226000AC52FF1FFFB58DB00F98169C0E4600288C
:1022700015D0002C13D00D9803F072F8050011D082
:102280006178207809024018A178E27809041206E2
:1022900089184718286AB84206D3401C04D0022087
:1022A00011B0F0BD1420FBE7002E04D02879800780
:1022B00001D40120F4E70822002106A8FDF7D0FE92
:1022C0001098001DC0B20190FDF706FF060017D060
:1022D000301D109A0F99FDF76BFF042221463046FE
:1022E000FDF766FF1022A91802A8FDF761FF06ABF3
:1022F000314602A8019A04F097F9050002D013E0D4
:102300001320CDE7082206A908A8FDF751FF0822EF
:10231000211D08A8FDF798FE012801D0012503E042
:1023200039460D9801F022F83046FDF7E7FE2846C1
:10233000B6E7000030B5584C8BB0607006211F2006
:10234000FFF7DCF800206946087201220A730722B1
:102350000A74888208228A8310220A848884FF20D3
:102360002D3008854DA003C8019100900222A11CC8
:102370004C48FDF729FF0422211D1003FDF724FF1F
:10238000A11C084606221230FDF752FE03206946C2
:10239000087606AA01214448FEF7DAFD42486A465B
:1023A0000621801CFEF7D4FDC32004AA0121800071
:1023B000FEF7CEFD3C4802AA0121001FFEF7C8FD32
:1023C000394805AA0221C01EFEF7C2FD224661203F
:1023D00010320F21C000FEF7BBFD334822461F32EA
:1023E0001321801EFEF7B4FD312003AA0121000154
:1023F000FEF7AEFD2C4807AA02210830FEF7A8FD23
:10240000294808AA02210930FEF7A2FD264809AA98
:1024100002210A30FEF79CFDC5200AAA0221800095
:10242000FEF796FD2246323215210020FFF7ECFC24
:102430001925AD0129460620FFF760F82946072037
:10244000FFF75CF829460820FFF758F829460920CD
:10245000FFF754F80025ED432846FFF7C5FC284652
:10246000FFF7D6F8284600F057F803F06DF817206C
:10247000FEF708FC0020FDF7ADFE0020FDF7B0FEE2
:1024800001216078FDF710FE6078FFF711F807482A
:10249000FDF7ACFE0BB030BD7C51FF1F0102030401
:1024A0000506000004400000090300001C6DFF1F2A
:1024B00038B50C4608040AD515484078FDF7D6FD16
:1024C000002801D0FDF7D8FD0120C00316E0E00789
:1024D0000125002808D00E480830FEF743FEFDF71E
:1024E0008BFE2046684038BDA00709D568460570B8
:1024F0006A4601210748FEF72BFD0220604038BDE7
:10250000600702D50420484038BD002038BD0000D7
:102510007C51FF1F0503000070B5054600240949E2
:102520000948FFF7ABF8094802F07AFFE80706D040
:102530000448074A08210830FFF71AFA04462046E3
:1025400070BD0000D450FF1FFFFF00009D5A021114
:1025500030720211FFB583B00F4603981B4940004B
:102560001646085AFFF79AFD04002AD00125601C80
:102570002670002F03D00699B847401C85B230065C
:1025800010D51021039802F079FF002801D01926F8
:1025900013E06219E9B22046FFF7D0FD06000CD126
:1025A0000C35ADB20421684601800194058169466D
:1025B0000398FFF759FD060004D02046FDF7E6FD1D
:1025C00000E01326304607B0F0BD0000F451FF1FB5
:1025D00010B50C4602F0D8FE002804D040882146F1
:1025E000FDF79EFD10BD122010BD0022002913D062
:1025F000002811D0012806D04A799206920E4A711D
:10260000032805D007E04879C0221043487102E052
:10261000402002434A7101221046704770B51248AB
:1026200000250078052108421BD02020FDF754FD2D
:102630000E4C0028A06013D020220021FDF710FDD1
:102640002020FDF749FDE060002804D02022002171
:10265000FDF706FD05E0A068FDF750FD0020A06035
:102660001325284670BD0000FB51FF1F6452FF1F59
:10267000002909D0012807D1497989098901C02990
:1026800002D0402901D00220704703207047FFB5D7
:1026900000200E4608701AE01C5C401CC5B2002CDD
:1026A00017D02819904214D85F5D6D1CEDB23846E2
:1026B00000F085FE002806D0641EE0B2307000995C
:1026C0008F4202D1581904B0F0BD4019C0B29042F7
:1026D000E2D30020F7E7000010B5044C2068002882
:1026E00003D0FDF70BFD0020206010BDC052FF1F7E
:1026F00070B50E4D84002859002815D0006A0028B6
:1027000001D0FDF7FBFC2859406A002801D0FDF7F5
:10271000F5FC2859806A002801D0FDF7EFFC285904
:10272000FDF7ECFC0020285170BD00005C52FF1F3B
:1027300010B5044C6068002803D0FDF7DFFC0020D2
:10274000606010BD5452FF1F0100044805D10449C8
:102750008978002901D00248801D7047186FFF1F3B
:10276000FA51FF1F0148807870470000FA51FF1F9F
:102770000148406870470000086FFF1F01488068EB
:1027800070470000086FFF1F0148C068006870476D
:10279000086FFF1F10B50748C0680168491C016039
:1027A00005480078FF2803D001218903FDF77CFC50
:1027B00010BD0000086FFF1FFA51FF1F024840685C
:1027C000002800D001207047BC52FF1FFFB581B028
:1027D0000F460D9E0A9D039802F0C2FD040042D0F0
:1027E000019800283FD120791021084320710499D5
:1027F000490702D50221084301E0FD21084020716C
:102800000B99284608430C9908433043207902D09D
:102810000421084301E0FB2108402071002E06D06E
:102820003069102220623146A018FDF701FC002D0E
:1028300001D0002F05D00B98002814D0012F08D00C
:1028400011E0606A002801D0FDF758FC1C212846E1
:1028500006E0606A002801D0FDF750FC1C210B98AF
:10286000FDF7D0FC60620398224C8700E0590028F5
:102870003ED0002D0FD0006A002806D11C20FDF7A5
:102880002BFCE1590028086205D0E0591C22006A9F
:102890002946FDF7CDFB0C98002810D0E059406A7E
:1028A000002806D11620FDF717FCE15900284862E0
:1028B00005D0E0591622406A0C99FDF7B9FB002EAD
:1028C00010D0E059806A002806D11420FDF704FCDE
:1028D000E1590028886205D0E0591422806A314607
:1028E000FDF7A6FB0B9B049A0399019802F0EAFFFF
:1028F00005B0F0BD5C52FF1FF3B581B0019802F046
:102900002FFD050029D00E20FDF722FC040024D065
:102910002620FEF79DFC060000D12E78D0202070E6
:10292000002767700B20A0700622E91DE01CFDF750
:102930007FFB019860810298C1070120002901D026
:10294000207300E027730299890701D5607300E0C6
:102950006773F0B22146FDF7D7FBFEBD10B5818845
:102960001F4B0124CA1A994237D011DC1D4BCA1AD9
:10297000994219D007DC1C4A8A1810D0022A1ED0AE
:10298000032A29D11BE0472A27D0482A24D124E052
:102990001300FDF75FFB06212222222222218068FC
:1029A000007800F0CDFC08E080688278417812025F
:1029B000891889B2007800F023FD04460DE0094A29
:1029C000921E914201D1012200E00022806801782C
:1029D000104600F0FDFC00E00024204610BD000081
:1029E000532000000A200000FADFFFFF70B51A4DE7
:1029F0001A4A0146002628781268194C01290CD081
:102A0000002A09D017490978490705D50221FDF7A1
:102A100045FB6680FFF760FE70BD6188002903D02A
:102A2000114B1B78002B05D0002AF5D01078FEF74B
:102A3000E5FB70BD3C2902D33C39618070BD0221A9
:102A4000FDF72CFB62887D20C000424302212878DC
:102A5000FDF71EFB668070BD8152FF1FC052FF1F35
:102A60006452FF1FFB51FF1FFD51FF1F08B5418935
:102A700000910389C2888188C07800F0ADFB08BD51
:102A8000F0B504468088A12189004843304987B0C9
:102A900009684018FF30FF300230A1794167002CEF
:102AA00054D02C4D6868002823D006782A48006846
:102AB000002804D04168002901D000208847214621
:102AC000E07908310591FFF7D3FDE0710246277DDB
:102AD000638A218AE089019002A88AC0A0880090B8
:102AE000E0783146059B02F063FFE078002802D0D1
:102AF0000DE01A48D9E7E079E2896B46059907C3EA
:102B0000A379A1880122304602F0D8FBE070686802
:102B1000002811D0FFF70CFE287800280CD0697827
:102B2000FFF756FD002807D0E078A28803462978F1
:102B300002F092FF00202870A0881721FEF7B8F855
:102B4000A088FFF747FAA088FFF76CFA07B0F0BD3E
:102B50003409FF1F5452FF1F8452FF1FFA51FF1FF9
:102B600070B504460026808802F0FAFB002803D0E6
:102B70000678A08802F066FC144D2878002808D05A
:102B8000864206D16978FFF723FD002809D000208E
:102B90002870002E05D0A379A288A078314602F0D3
:102BA0005BFFA088094A810008325158002901D0F2
:102BB000FFF79EFDA0881721FEF77AF8A088FFF79F
:102BC00009FAA088FFF72EFA70BD00005452FF1FCB
:102BD00070B58288294D0124531B2949AA4242D04D
:102BE00019DC284D531BAA4218D00BDC264BD218F7
:102BF00026D0254B1033D2181ED0032A17D0042A12
:102C000039D10BE0012B09D0022B07D0032B21D0A7
:102C1000042B30D11AE0433B072B2CD849680029FC
:102C20002AD00968002927D08847044624E0806814
:102C3000007800F0ADF81FE0806800F001F9F4E7DB
:102C40008068411C007800F0D9F8EEE783681B78B3
:102C5000002B11D0896800290ED00B6808E00146CE
:102C600010469847E1E709490968002904D04B68F4
:102C7000002BF4D100E00024204670BD0E2000009F
:102C80008052FF1F08200000F7EFFFFF6052FF1F78
:102C900010B5094CA17800290CD001460622A01DD0
:102CA000FDF7C6F9A11DA078FFF79FFCA01DFDF759
:102CB000AFFA10BD002010BDFA51FF1F1CB52F49FF
:102CC000037801240A68912B02D0A22B2ED13EE07A
:102CD0004178052909D00E2904D00F2908D03E29B2
:102CE00024D115E0FFF774FF10E0FFF739FF3AE059
:102CF00001468088224B0124C31801D0062B15D130
:102D0000002A30D05268002A2DD0904704462AE08D
:102D100081780124032917D004DC012911D002296C
:102D200004D105E015291ED016291CD000241AE074
:102D300014498968002916D04968002913D08847AA
:102D400011E0FFF79DFE0EE0FFF790FE0BE00E494D
:102D50000978042909D0002A05D05268002A02D037
:102D600001460A48904720461CBD00216A46118052
:102D700001794088FFF7AEF8F5E700006052FF1FC9
:102D8000F3DFFFFF8052FF1FFB51FF1FFFFF00001B
:102D9000F8B5164F0646BD1F2878FF2814D00A2024
:102DA000FDF7D6F904000FD0D020207066700820FF
:102DB000A070A878E07006223946201DFDF738F98A
:102DC00021462878FDF7A0F9E87801280DD10848B8
:102DD0000068002803D08068002800D0804706489B
:102DE000044A04210078FDF77DF9F8BD0052FF1F69
:102DF0008452FF1F60EA00008152FF1F70B500245B
:102E00000546002805D1002903D006220B48FDF70E
:102E10000FF90A4810380178012907D10124002D43
:102E200006D000210170284600F0B2F9204670BD9E
:102E300002210170FDF7F2F9F8E70000186FFF1F9B
:102E400010B50024002813D002780B49002A03D1C2
:102E50004288CA8202790A760A78022A08D1027860
:102E60000124002A06D000220A70007800F090F9B0
:102E7000204610BD0322F7E7086FFF1F0149486095
:102E8000704700008052FF1FF8B5774C87780146E5
:102E9000002507266079A2793B00FDF7DBF80805DD
:102EA000361A37375F94C736487800285CD16E48A9
:102EB00006223C30C91CFDF7BBF80120A0716A4B0B
:102EC0000146423362786079FEF768FB00284BD1F7
:102ED000A2E00F464978002946D1F978002906D0AA
:102EE000624BA2780021FEF759FB78700AE0022AB3
:102EF0000BD00121FDF7DEF8002803D10121607914
:102F0000FDF7D2F8787800282ED1F8BD497800294D
:102F10002AD1032F09D0A289002A0CD021780029B8
:102F20000AD00121FDF7B4F806E0052A01D00220FD
:102F300012E0062010E02570A079062802D00428AF
:102F400002D008E0052007E00120207001466079EA
:102F5000FDF7AAF860E00320A0715DE048780F4615
:102F6000002803D031282CD0A67155E03E48062217
:102F7000391D3630FDF75CF87889E081B889208208
:102F8000F88960820520A071A28A002A03D002215C
:102F90006079FDF77DF8B889E083F8892084388A64
:102FA0006084E07801280AD11F20FEF751F97D21C5
:102FB000C9004843024604216079FDF769F825708D
:102FC0002AE02570C7E728480E4606220021363041
:102FD000FDF746F8E5832584658404216079FDF7D3
:102FE0005DF808216079FDF759F8B079082808D014
:102FF0000320A0712078002805D06079FEF7FEF844
:1030000007E00420F5E70120207001466079FDF714
:103010004BF80020C043E081606A002800D174E7CB
:1030200001680029FBD0A0798847F8BD0D4608212A
:10303000FDF734F8687829460028F6D1E888E0835F
:10304000288920844889608404216079FDF732F85A
:103050000028EAD1A06A0028E7D00368628C218C9E
:10306000E08B9847F8BD0000944FFF1F5A69FF1F7F
:1030700010B501781C4C912906D0A2291BD0D0296B
:1030800001D1FFF701FF10BD41780E29FBD18188E6
:10309000164A9142F7D1816803200856A179052983
:1030A000F1D17F28EFD0616A0029ECD0496800296E
:1030B000E9D0884710BD41791329FBD10089012847
:1030C00002D12079022808D00520FEF7C1F8024677
:1030D00008216079FCF7DCFF10BD08216079FCF75E
:1030E000DDFFFEF75BF810BD944FFF1F05140000D5
:1030F0007CB5154C0546E08BE18A88420AD3218BCA
:10310000884207D8208C618B884203D1608CA18BC8
:10311000884217D00520FEF79BF80646E18A6846EC
:103120000180218B4180618B8180A18BC18062797C
:103130006946E089FEF7DAFE25713246082160799A
:10314000FCF7A6FF7CBD0000944FFF1FF8B50746B3
:103150000E46084602F004F9040018D02620FEF7B7
:1031600077F8050000D125780620FCF7F1FF040070
:103170000DD006220021FCF773FFD020207067706D
:103180000E20A070A680E8B22146FCF7BDFFF8BD76
:1031900070B50F4D06462878FF2818D00E20FCF792
:1031A000D7FF040013D0D020207066700020A070DC
:1031B00006220849E01CFCF73BFF06481038C18A8C
:1031C0006181007E207321462878FCF79DFF70BD49
:1031D000FA51FF1F186FFF1FFFB581B01E4617463B
:1031E0000D460C20FCF7B4FF040013D0284602F073
:1031F000B7F8002810D00078D021217001996170B3
:103200000721A170A580E78026810A996181214666
:10321000FCF77AFF05B0F0BD0048ECE7FA51FF1F5C
:1032200070B50D4D044628680E46002812D00620C1
:10323000FCF78EFF010009D0D02008704C700320ED
:1032400088708E8028680078FCF75EFF002C01D023
:10325000FFF742FA70BD0000C052FF1FFFB581B0FA
:103260001F460E46084602F07BF8050022D01020CB
:10327000FCF76EFF04001DD010220021FCF7F0FEC9
:103280002620FDF7E5FF002800D12878D021217005
:10329000019961700F21A170A68003992172677254
:1032A0000A99A1720B99E1720C99E160C0B22146B2
:1032B000FCF72AFF05B0F0BDF0B51F4D85B02868BA
:1032C000002837D08778FEF73FF8002805D00A207D
:1032D000FDF7BEFF04900B200EE001F0C9FB0028B3
:1032E00005D00620FDF7B4FF0490072004E0082075
:1032F000FDF7AEFF04900920FDF7AAFF04460F4832
:103300000078002814D001262968C878091DFFF725
:103310006CF929686D46CA7A8B7A091D0BC5039230
:1033200033463A4621460498FCF77EFF05B0F0BDCF
:103330000026E9E70120F9E7C052FF1FFC51FF1FFB
:1033400010B50949096800290CD0002805D10120D1
:103350004870FCF7B5FE002802D00021FFF760FF9F
:10336000012010BD002010BDC052FF1FF8B50C4653
:1033700001F0F6FF020021D026201462FDF768FF5D
:1033800005062D0E00D115789679D01D00901020DD
:10339000176AFCF7DDFE040010D0D020207000205A
:1033A00060700920A070E6700622201D0099FCF7CD
:1033B0003FFE21462846E760FCF7A6FEF8BD411E09
:1033C000152903D9FF2801D000207047012070473C
:1033D00070B50A4E054630780C46FF280DD0042003
:1033E000FCF7B6FE010008D0D02008704C70022017
:1033F0008870CD703078FCF787FE70BD6452FF1F77
:10340000F3B5284D81B0286800284AD04078264E70
:10341000012803D03078002831D041E001F028FBAA
:10342000224F002813D00120FDF712FF0446412847
:1034300008D91F4A02213878FCF754FE1D483C3C4D
:1034400044800EE07D20C0002246424303E000207D
:10345000FDF7FEFE0246002A03D002213878FCF771
:1034600017FE2968022048703078002802D000201A
:10347000307015E002990198FFF7D2FE10E00320AA
:10348000019CFCF765FE010008D0D02008704C704C
:103490000420887028680078FCF736FEFFF71CF9D6
:1034A0000120FEBDC052FF1FFD51FF1F8152FF1FB3
:1034B00060EA00006452FF1F074A00218B00D35AC4
:1034C000834202D1880080187047491CC9B2022982
:1034D000F4D30020704700009452FF1F10B50C4633
:1034E000FFF7EAFF00280DD0002C00D02060807884
:1034F000FE2803D0FF2803D0162010BD172010BDD2
:10350000002010BD022010BDFFB581B0FF201E4677
:10351000174605300A9DFCF71BFE04001BD0B020A7
:1035200020706770029860802671002D06D02046BA
:10353000FC2229460830FCF77BFD05E02046FC22F2
:1035400000210830FCF78CFD21460198FCF7DCFDDA
:10355000002005B0F0BD1320FBE70000054817224E
:1035600002800988172901D20420704701800020B9
:1035700070470000F651FF1F0020704708B50A464B
:103580000888498888420BD8002809D00023009376
:103590001379521DFEF7AAFA002803D0002008BDB7
:1035A000012008BD0A2008BDF3B50D4608884988EA
:1035B000002687B0814215D3002813D00027694622
:1035C0000F710097002369881A46FEF78FFA0400EE
:1035D0004FD068460079002807D06946497901290B
:1035E00025D008E0012009B0F0BD217802291BD0C8
:1035F00002216A4651711222504301AA6189801842
:103600004180684600791223584380181022001D1B
:103610006168FCF70DFD68460079401C0106090E43
:10362000684601711FD11AE001216A465171217863
:1036300002291ED1820001A86189121851806A46B0
:1036400012796168920010180222001DFCF7F0FC4C
:103650006A461079401CC0B21071052803D26189F6
:103660000A48814200D101266089401C80B2002EA8
:10367000A7D068460079002805D001A90798FDF772
:103680007FF90020AFE70A20ADE70000FFFF000050
:1036900038B50C4608884988884215D8002813D0C8
:1036A0002379621D02210B48FDF7EFF800280DD0A9
:1036B00000200090237961882088621DFEF716FAA9
:1036C000002805D0002038BD012038BD102038BDAD
:1036D0000A2038BDB072021108B50A460888498828
:1036E00088420BD8002809D0002300931379521D7B
:1036F000FEF7FCF9002803D0002008BD012008BD1A
:103700000A2008BDF8B500250F4606460C46E037EE
:1037100017E06800205A0021FEF7C2F9002809D0FE
:10372000017A3046FEF72CFB002808D06900615A68
:103730002180F8BD6800205A20800120F8BD6D1C52
:10374000EDB2B87DA842E4D80020F8BD10B504461B
:1037500008880021FEF7A4F9002804D0017A204649
:10376000FEF70EFB10BD012010BD000030B585B086
:1037700005466946FDF778F9040026D16846807849
:10378000C1071E4809D08268002A04D068886946AB
:103790009047044619E0062417E04268002A05D045
:1037A000688869469047040001D10EE00624684607
:1037B0004078002809D16846817801730021C181D1
:1037C0000474688803A9FDF79BF8A868002801D055
:1037D000FCF7DCFC002C05D168468078122807D065
:1037E0001B2803D068880121FEF790FB05B030BD8F
:1037F000684640780128F5D1F8E700009C52FF1F89
:1038000070B505460C4608880021FEF749F90028E6
:1038100005D0017A22462846FEF7C5FA70BD012080
:1038200070BD000001494860704700009C52FF1FB6
:1038300010B50446801C00F029FDFF20E07010BD8B
:1038400010B500F025F8002800D0806810BD0022D7
:103850009300CB5A834202D1900040187047521C0B
:10386000D2B2022AF4D3002070470000074A002198
:10387000CB00D35A834202D1C80080187047491C3C
:103880000906090EF4D00020704700000850FF1F01
:103890000649896805E08A88824201D188687047B4
:1038A00009680029F7D1002070470000F84FFF1F7A
:1038B000F8B50746012906D0022924D1012101F0DB
:1038C000DDFD00281FD13846FFF7D0FF050015D0D9
:1038D00000240D4E0CE0F820696860430818018848
:1038E000002908D0F8220021FCF7BAFB641CE4B2DE
:1038F00070788442EFD30020C043288002493846C4
:103900001831FDF7BBFEF8BDF84FFF1FF3B50646B3
:1039100083B008300190002000907088FFF7A6FF68
:1039200007002FD0002523E0F820796868430C18A1
:103930002188002920D00198007801280FD16088C3
:103940000090A3887088A21DFEF75CF80090002804
:1039500005D0019900200870049821880180F82280
:1039600000212046FCF77CFB00206D1C2080EDB27E
:10397000074840788542D7D30020C043388000985C
:10398000002802D17088FCF7E5FF009805B0F0BD73
:10399000F84FFF1FF3B50546374C064685B008358E
:1039A000F62200212046FCF75BFB03A800902B7950
:1039B000698828886A1DFEF799F8074645E07088EF
:1039C0002E4A4100515C2E4BC91FC9B20093002200
:1039D00002910192284B69468A89F63B3946FDF7E8
:1039E000ADFE002812D126482989001F8288914205
:1039F0000CD121492846F6390A30FCF725FB00286E
:103A000004D021787889890009194880684682891C
:103A1000698804AB3846FEF79BF80746207881009A
:103A200009194A88002A10D0002F05D06A46128A48
:103A3000401C20708A800AE002060021920DC943D2
:103A40001219401C2070918006E0002F04D00D4810
:103A5000217800888142B2D32078002806D070886F
:103A60002146FCF77FFF002007B0F0BD06982988AB
:103A700001800A20F8E70000886BFF1FF451FF1F48
:103A8000FC4FFF1FF051FF1FF0B585B0044600202A
:103A90006946888120790E2869D00FDC082823D058
:103AA00004DC022813D0062818D118E02546083572
:103AB000484F0A281DD00C2810D138E010285BD0C0
:103AC00012285ED0162861D0182877D163E04348C9
:103AD0004149008808806088FCF71CFF6EE003A95C
:103AE0002046FFF757FF5AE003A9204600F076F979
:103AF00055E0288804A9FDF7D3FF010015D06088A0
:103B0000354E4200BA5C0023521ED2B2019302929B
:103B100000966A46B31C128AFDF710FE00281DD1DC
:103B200060883146FDF7A4F848E0012016E02888B7
:103B300004A9FDF7B5FF0100F7D060886B8842004B
:103B4000BA5C254E521ED2B20193029200966A468A
:103B5000B31C128AFDF7F2FD002803D029886A46BB
:103B600091811CE060883146FDF752F826E003A9F8
:103B7000204600F0D3F912E003A9204600F082F8B5
:103B80000DE003A9204600F039FA08E003A9204619
:103B900000F028F803E003A92046FFF7B7FE00284D
:103BA0000CD06178142909D00B4922790A706A4631
:103BB00092894A8008716088FCF7A2FE2046FDF7D2
:103BC00057FF0748C168002901D02046884705B043
:103BD000F0BD0000F451FF1F886BFF1FEE51FF1F67
:103BE000F84FFF1FF8B504460F4605460834008914
:103BF0006946FDF755FF06003AD0307A80060ED5AB
:103C000068460088FFF71CFE030006D06888122271
:103C100031469847060002D02BE00E2629E06E8838
:103C20003046FFF723FE010005D11448FFF71EFEC2
:103C300001000ED00E80124A0020527807E0F826CC
:103C40004B6846439B5B002B05D0401CC0B29042A2
:103C5000F5D309260DE04968F8225043081821469B
:103C6000FCF7E6F9002668882146FCF7C7FF02E06A
:103C70000126208838803046F8BD0000FFFF000094
:103C8000F84FFF1FF3B58BB000200B9E0746039043
:103C900004A800903246337B718930894C4C0D3238
:103CA0000836FDF723FF054678E00B98297A40880F
:103CB000FEF766F8070003D00C98698901806FE071
:103CC0000B9844494088444B4200895C0093891F0B
:103CD000C9B20022029101923D4B69460A8AF63B25
:103CE0002946FDF72BFD0700E6D10398002833D0C5
:103CF00039486188001F8088021D914253D1039981
:103D000009180B98408842003248805A801F81422F
:103D100049DC0399A87A6118087103986989401CE5
:103D200080B22218090A401C117180B203906846C3
:103D3000028A718807AB2846FDF70AFF050011D0FB
:103D400003986946898B2018017103986946401CC5
:103D5000898B80B2090A0CE01F48001F8088001D73
:103D60006080D6E70398FF21201801710398401C5A
:103D700080B222181171401C80B217490390091FAC
:103D80008A8813492018F639001DFCF751F91249A9
:103D90000398091F8988401880B20390002D84D1B0
:103DA000039800280CD061880398FCF743FA207030
:103DB0000B9821464088FCF735FF00200DB0F0BD80
:103DC000002F00D10A270C98318801803846F5E78A
:103DD000886BFF1FF451FF1FFC4FFF1FF3B5074611
:103DE000044608378BB049480490388800252E4691
:103DF00005906AE007A800903B7979887A1D0598BC
:103E0000FDF774FE0890002852D04089059008986C
:103E1000017A6088FDF7B4FF06005DD160883C49F7
:103E20004200895C3B4B091FC9B2009300220291FA
:103E30000192364B69468A8BF63B0899FDF77EFC6A
:103E4000060049D1002D36D0049841883148001F22
:103E50008088801C814241D12E4B1B1F98882918D5
:103E6000608842002A48805A001F814220DC08985E
:103E7000817A04984019017108996D1C4989E8B24A
:103E80000A0A049909180A71401CC5B21946049817
:103E90008A881E494019F639001DFCF7C9F81D48EB
:103EA0001D49001F00792818C5B20598884209D11C
:103EB000002D13D123E017480499001F8088801C2F
:103EC0004880C9E7401C80B20590608841001048D6
:103ED000405A001FA8428DDA002D0ED00498418868
:103EE0002846FCF7A7F901460498017060880499F8
:103EF000FCF7A6FE00200DB0F0BD002E00D10A2672
:103F00000C99059808803046F5E70000886BFF1F84
:103F1000F451FF1FFC4FFF1FFFFF0000F3B50646E3
:103F20000446002085B0324D0090083628800746B0
:103F30003046E030049048E07800305A03A9FDF79D
:103F4000AFFD01001AD060882B4B844642002948FF
:103F5000805C0093401EC0B2002202900192244B6C
:103F600068468289F63B6046FDF7E8FB0090002832
:103F700007D07800315A0698018035E00120009082
:103F8000F7E71D492888091F8988421861884B0076
:103F90001849C95A4B1E9A4204DD081A1649091FCE
:103FA000401E88802988A81C08181349091F8A8880
:103FB0000F49F639FCF73CF80F482988001F808824
:103FC000081828807F1C0498FFB2807DB84207D96A
:103FD0006088298842000748805A401E8142ABDB36
:103FE00060882946FCF73AFE009807B0F0BD000053
:103FF000886BFF1FF451FF1FFC4FFF1FF3B50546F1
:1040000083B004460835008901A9FDF749FD27461C
:10401000E8370646002822D0307A80060ED568465A
:104020008088FFF70DFC030006D06088122231461D
:104030009847060002D013E00E2611E00020009001
:104040006B88298860882A1DFDF7DCFC060007D1F3
:10405000787E002807D16088FCF736FE03E0012651
:10406000049829880180787E002802D0002005B0BD
:10407000F0BD3046FBE70000F8B504460246F820E4
:1040800042431948002507464570103778680028D4
:1040900007D00020C100C919401C00064D60000E69
:1040A000F8D0124E00213046FBF7DAFF002001461F
:1040B0006143C9B2F82251438B190B49C200103138
:1040C00052180021536005E0F8274F435368491CFC
:1040D000DD53C9B2A142F7D3401C0006000EE6D062
:1040E000014844700020F8BDF84FFF1F9A69FF1F78
:1040F0007CB50C78069D022C0FD14C68267864782C
:1041000024023419064EA4B2F44206D10224DBB2D2
:1041100000950194FDF7CAFA7CBD01207CBD00002A
:10412000FED6FFFFF8B505461D48854223D0461C44
:10413000002921D001292BD002291CD10121284698
:1041400001F09CF9002816D12846FFF7B5F90400C4
:1041500011D0A078FF280ED0FE2807D000200090B4
:10416000E0781E2314222946FFF7CEF92046FFF7F8
:104170005FFBFF20A070F8BD2846FFF79DF90028DF
:10418000F9D13046FFF798F90028F4D00580F8BD42
:104190002846FFF791F90400F9D02680D9E70000FE
:1041A000FEFF0000F3B50C468978C1B01E2914D07B
:1041B0002E4D2878FF2829D0182927D84808C20072
:1041C0002B481218803A976F002F1FD0D06F00280D
:1041D0001CD02078002817D113E04198FFF76CF924
:1041E00005000BD000200090A378E87800224199C8
:1041F000FFF78AF906462846FFF71AFB304643B018
:10420000F0BD6278012A03D1122901D00620F6E719
:1042100002AE0096A3886178A268B8470028EED164
:10422000A0784008C100124808188038C26F02A95F
:104230004198904700280FD061780029DFD1A278FB
:1042400069460A700871684601894180694641984B
:10425000FCF756FB0020D2E7A378042BCFD00096C2
:10426000002228784199FFF74FF9C8E78C52FF1FC9
:104270004C72021100B50346FDF772FD002803D011
:10428000C018401E80B200BD184600BD10B5040025
:1042900008D02078FF2805D0FE2803D0FBF7D0FFF8
:1042A000FF20207010BD0000F7B506460F46102015
:1042B000FBF712FF05461020FBF70EFF0446002D0A
:1042C0003AD0002C2DD010220021FBF7C9FE2A463F
:1042D0002146304601F098FC060023D128780006DC
:1042E00004D43946284600F0DBFF08E02146284682
:1042F00000F0D6FF3A461149204602F009FF38780F
:10430000000604D43846029900F0CAFF0AE02146AC
:10431000384600F0C5FF09492046029A02F0F8FE2F
:1043200000E013262846FBF7E9FE002C02D02046C9
:10433000FBF7E4FE3046FEBD1326F6E7D672021107
:10434000F8B5069800271D4614460E46002801D0F1
:104350000B20F8BD30780021022801D019804DE0F3
:1043600070680278407800021018152280B252025C
:10437000801A0300FBF76EFE0504121F1A25410088
:10438000F068FBF7DFFEC2B20798824200D902460E
:104390002A80F1682046FBF74BFE30E0F0680221EE
:1043A000008829802070000A607028E0062028809C
:1043B0000246F168EEE701202880F068007820705E
:1043C0001DE0F068002816D00821298001782170AE
:1043D0000188090A61708178A1704188090AE17039
:1043E000017921718188090A61718179A171C0887F
:1043F000000AE07103E0298001E0298001273846A6
:10440000F8BD10B50B78840702D50224234301E0E0
:10441000FD2423400B7003070B7802D508242343A7
:1044200001E0F72423400B7083060B7802D520248B
:10443000234301E0DF2423400B700A21084201D10D
:10444000810603D510780C21084304E0002803D12D
:104450001078F3210840107010BD0000FFB581B046
:10446000087800240A9E1F460D4602280FD168686E
:104470000178407800020818152180B24902401ADC
:1044800009D0012829D0022848D003283CD0012493
:10449000204605B0F0BDE868FBF754FEC0B2864286
:1044A00005D8F0190090152803D90D24F0E707244A
:1044B000EEE7E8683A4680190399FBF7B9FD0098E2
:1044C000EA6880B2002111541C4840680028DFD0FF
:1044D00001680029DCD0002012E0002E12D1022B4E
:1044E000E3D10399E8680A784978090251180180F4
:1044F000124840680028CBD001680029C8D00120AC
:104500008847C5E70B24C3E7002EFBD1062BCCD18F
:104510000622E8680399FBF78BFDB9E7002EF1D17D
:10452000012BC2D103980078002803D0012801D0C4
:104530008024ADE7E9680870AAE70000104FFF1F6C
:1045400010B50448C16B034A40321068D06000F0D7
:1045500027FA10BD0080004030B5C21F0A2A01D3DF
:10456000062030BD0124074D9440002905D00021CC
:1045700000F0A6F82868204301E02868A0432860DE
:10458000002030BD00380040054B01228240D86831
:10459000002901D0104300E09043D860704700002C
:1045A0000038004010B5114C2078002801D00720B9
:1045B00010BDFF212D310D48FBF748FE0120207072
:1045C0000B490020086348630A49086248620221D7
:1045D0001020FDF76FFD0120074900040860074A1D
:1045E00007490D20FBF738FE002010BD8C67FF1F28
:1045F0000080004080F0004000E100E0114802111E
:104600008547021110B5172801D3052010BD0C4BAA
:104610009C6B01228240104620439863586B904364
:104620005863DC6B012907D020469043D863186B90
:1046300002431A63002010BD10462043F6E7000035
:1046400000800040054B0122801E824058690029ED
:1046500001D0104300E0904358617047003800409B
:1046600070B5044614480E460519002902D1687831
:10467000012808D000212046FFF786FF022C04D035
:10468000032C02D005E0072070BD01212046FFF772
:10469000D9FF00212046FFF75FFF08490120A04015
:1046A0004A68012E05D082434A60022068700020CB
:1046B00070BD02434A60FAE78C67FF1F008000402C
:1046C00070B5420083180D4A9C18A5786478D65CB2
:1046D000641B0122641CA240521EAA40084BA94040
:1046E000132806D2B000C018836893430B4383603D
:1046F00070BD586990430843586170BD3D71021107
:1047000000F0004007494A68012383401A4201D063
:10471000096802E0034940310969C140C807C00F78
:10472000704700000080004070B5154C45002E1900
:1047300076780123114AB34000290ED0142809D0FD
:10474000152807D0162805D060578000801881688A
:1047500019430DE0506918430EE014280AD01528BB
:1047600008D0162806D060578000801881689943C9
:10477000816070BD50699843506170BD00F0004089
:104780008271021170B5104D00242E197078012825
:1047900003D1E0B20121FFF7C7FF707802280ED1E4
:1047A000E0B2FFF7AFFF01214140E0B200F078F83E
:1047B000E0B2FFF7A7FF0C21614349194876641C5A
:1047C000172CE2DB70BD00008C67FF1F10B50F4C8B
:1047D0000D4A0123245C142809D2106A002902D052
:1047E000A340184301E0A3409843106210BD506AF3
:1047F000002903D0203CA340184302E0203CA34002
:104800009843506210BD000080F0004026710211F4
:1048100070B502211020FDF74DFC01201E49000457
:10482000086000241D4D07E0022C01D0032C03D1A9
:10483000E0B20121FFF706FF2819407801280BD1CB
:10484000E0B2FFF75FFFE2B20146104600F064F805
:10485000E0B20021FFF768FF0C2060434019007EA2
:10486000002814D0E0B200F069F8E6B23046FFF755
:1048700049FF002801D0012100E000210C227243F1
:104880005219527E824202D0304600F0BDF8641CBC
:10489000172CC9DB70BD000000E100E08C67FF1F32
:1048A000F8B542008318184AD55C9A189278521EBF
:1048B000D4B2164A12185278022A21D1144EB76B7C
:1048C0000122134683401F43B763124B13280ED2B5
:1048D000002906D0A900C9188B68A24093438B60B9
:1048E0000BE0A900C9188B68A2401343F7E7002921
:1048F000596906D0A240914359610121FFF766FF33
:10490000F8BDA2401143F7E73D7102118C67FF1F0C
:104910000080004000F00040012200B5064B8240BC
:104920000029196801D0114300E091431960012169
:10493000FFF796FE00BD00000080004070B5044601
:10494000164821460C2251430D186A680026002A99
:1049500002D1AA68002A1CD0104B0222183B1B1956
:104960005A700122425400212046FFF779FE686800
:10497000002808D0A86800280DD02046FFF7C2FE06
:10498000002808D0002631462046FFF73BFE0020D5
:1049900070BD122070BD0126F5E70000A467FF1F5F
:1049A000F3B5184E002481B0074601252846A040E3
:1049B000384223D00299084000D001200090E0B294
:1049C000009900F021F80C2060438019416880684C
:1049D00000290ED0002807D00098002802D000211E
:1049E000E0B203E00121FBE7E0B20121FFF70AFE9C
:1049F00004E0002802D0E0B20021F7E7641C172C85
:104A0000D4DBFEBDA467FF1F074A0C2343439B185A
:104A10005A68002A01D0012904D09A68002A02D0DD
:104A2000002900D110477047A467FF1F70B50546E5
:104A30000D4885420CD00D4C01290AD0022905D120
:104A40000121284600F01AFD002802D00020A070A5
:104A500070BD06492846091DFCF710FEA078002805
:104A6000F6D0FBF7FFFB70BDFEFF00005C50FF1FA0
:104A700008B509488368002B0CD01A7869460120D4
:104A80005B1CFDF704FE002804D00078C00701D0AD
:104A9000012008BD002008BD6452FF1F10B5034669
:104AA0000B4A00200A21414389184988002905D072
:104AB000401CC0B20328F5D3002010BD0A210024F9
:104AC000414354540446403488184480037210BD56
:104AD000346FFF1F0A7802700A88120A42708A78BF
:104AE00082704A88120AC2700A7902718A88120A90
:104AF00042718A798271C988090AC1710820704798
:104B0000F8B505460C4648680421FBF74BFB217AB3
:104B1000017021890346401C090A01702178417007
:104B20002188090A8170207A001DC2B2FB2A36D87A
:104B30001C48854215D114461E460C20FBF708FB85
:104B400001000CD090200870022008714D808E600A
:104B50001548CC800078FBF7D7FA00271DE0132713
:104B60001BE05C2011496843441826464036307EDD
:104B7000002806D008465C30416A0727491C41627C
:104B80000BE02146284600F095F90746307E0028C4
:104B900003D121462846FBF76BFB3846F8BD0220BF
:104BA000F8BD0000FEFF0000A952FF1FB06FFF1FFD
:104BB00010B50A4A00210A234B439B185C88002C3D
:104BC00006D01B79834203D10A204143881810BDC7
:104BD000491CC9B20329EED3002010BD346FFF1F5A
:104BE000002141800170704770477CB504000FD0F0
:104BF000608800280CD00025009501951323E188DA
:104C0000207A172200F028F8FF2060726580257056
:104C10007CBDF8B5074615460E461020FBF798FAFE
:104C2000040017D0A0202070002060706680002D46
:104C300005D00C222946201DFBF7FAF904E00C22CE
:104C40000021201DFBF70CFA21463846FBF75CFAE1
:104C50000020F8BD0120F8BDFFB581B01E46174603
:104C600014200B9DFBF774FA04001AD0A2202070C8
:104C70006770029860800A9820716671002D06D0D6
:104C800020460C2229460830FBF7D2F905E02046E1
:104C90000C2200210830FBF7E3F921460198FBF7CD
:104CA00033FA05B0F0BD022A1CD34B780A781B02F8
:104CB000D21892B20280012A02D0022A06D00FE056
:104CC0008A78C97809025118418009E0CB788A783E
:104CD0001B02D21842800A79497909025118818051
:104CE0000020704701207047F8B506464D88002027
:104CF00070600A790C46022A12D02901604800919E
:104D0000415A002906D0009B1F18BB68002B01D018
:104D1000012A7DD05A486C304169491C4161A9E0A3
:104D2000E288042A43D3A068437801781B02C9189B
:104D300089B20091C37881781B02C9188FB2017AB9
:104D4000C079000208184F4948800099091D8A421D
:104D500020D1072F13D0052F11D0042F02D0062FFA
:104D600025D10CE046482901405A002807D02846A2
:104D7000FDF730F942486C300169491C0161009827
:104D8000308137800321C943A068FBF70BFA7060BC
:104D90000020F8BD072F18D0052F16D0042F07D0FC
:104DA000062F12D036486C30C168491CC16064E0DF
:104DB00033482901405A002807D02846FDF70AF950
:104DC0002F486C300169491C01612D492D010020DB
:104DD00048536E180098B081B7800098FDF75EF9CF
:104DE000B060002818D00321C943A068FBF7DAF9A6
:104DF000E2880146224F121FB068FBF719F9785B71
:104E0000E1884018001F785338466C30016800E094
:104E100008E0491C016030E019486C308169491C88
:104E200081612AE0E2888918009A89B28152BA89A0
:104E300091421AD80546B868E2884018801AA168DD
:104E4000FBF7F6F80098295AB889814215D13081CC
:104E5000B8883080B86870600099002068520848AF
:104E60006C304168491C416007E005486C3081683E
:104E7000491C81602846FDF7ADF80120F8BD00000F
:104E8000A06FFF1FC452FF1F022A01D001207047EC
:104E90000A784978090251180180002070470A7881
:104EA00002704A7842708A78C978090251184180A4
:104EB00070470000FFB50C4607463D49A120800021
:104EC000096878434018FF30C130067E89B0154626
:104ED0003846FBF769FD001DB04204D23846FBF7A7
:104EE00063FD001DC6B2B54207D82A4600213846E8
:104EF0000C9BFBF7C3F90DB0F0BD31462846FBF71C
:104F000099F92746403738740C9961650146714319
:104F1000691AC9B202910C9904910299002901D031
:104F2000401C3874002523E00299002904D0401E5B
:104F3000A84201D1084600E03046E90005910391FE
:104F40006054FCF7DFFF03990919486000281BD063
:104F50000599625C0499FBF76BF80598215C04984D
:104F6000081804901348C169491C6D1CEDB2C16159
:104F7000387CA842D8D8606D002803D0FBF706F92A
:104F8000002060650020B6E70020387406466065A2
:104F900006E0F00000194068FBF7F8F8761CF6B25E
:104FA000AE42F6D30348C16A491CC1621320A2E78E
:104FB0003409FF1F0C70FF1FF7B586B016460D466B
:104FC0004878FFF7F5FD040010D0002727712878F6
:104FD000012802D0132809D105E06A88314602A8C9
:104FE000FFF761FE0AE02078032802D0002009B014
:104FF000F0BD6A88314602A8FFF746FF0646204604
:1050000000F046F902A8019000972B78207A3246EA
:105010000699FFF721FE2046FFF7E2FD3046E6E75E
:10502000FEB50446468801466846FFF75DFE054624
:10503000019800282FD068460088052806D004284B
:1050400009D0062807D0072805D026E06946304653
:1050500000F030F821E08100154808180146403979
:10506000098E002919D02038807C6A463146FFF726
:10507000D0FD002811D168460088042803D0012102
:105080003046FCF743FF012D04D1A068002801D071
:10509000FBF77CF8FEBD012D04D1A068002801D0EB
:1050A000FBF774F801213046FCF730FFFEBD00002D
:1050B000246FFF1F30B50546088987B00C460428C9
:1050C00017D302A86168FFF7EAFE684640891728EF
:1050D00037D82189001D81421ED16846007AC10758
:1050E00009D0626802A92846121DFFF765FF002853
:1050F00012D107B030BD6168091D122805D000200B
:1051000069460880497A6A4622E06846428903A8CF
:10511000FCF72CFF002803D02846FFF765FDE8E7E1
:105120000D4881880029E4D06946497A03AA019292
:10513000009169460B7A807900222946FFF78CFDA1
:10514000D7E701216846018017214180417A6A46EC
:105150002846FCF7BFFECCE7246FFF1F70B5144C48
:1051600000262680A681A680A0683546002802D0A9
:10517000FBF70CF8A5600E4C103420464030057447
:1051800045740576606D002802D0FAF7FFFF65656B
:105190005C20002546433419E800201840680028A8
:1051A00001D0FAF7F3FF6D1C0A2DF5DB70BD00008E
:1051B000A06FFF1FFFB589B015460E461720129F3E
:1051C000FCF76CFF040021D0684606704570002F84
:1051D00003D0201D0C99B84700E0002069464880A4
:1051E000267065704888A070010AE1700522694642
:1051F0008A82001D0694888305A90998FFF780FC20
:10520000050004D02046FAF7C1FF00E01325284628
:105210000DB0F0BDFFB581B01E46054601210A9FC5
:105220000B9C00F02BF9002811D02046FFF736FC2C
:1052300000280AD0C5800446077012484178491CEE
:105240000A06120E427004D005E015250FE0142561
:105250000DE001224270227100962846039B0299BC
:10526000FFF7A8FF050005D02046FFF7B9FC284648
:1052700005B0F0BD23462146034A09330348FBF736
:1052800003F8F4E7C452FF1F30750000EB4B021126
:1052900010B50446407AFAF7D3FFFF20607210BDC4
:1052A00010B500240F22835C5B0023438B54835C86
:1052B000521EDC0952B2002AF5DA10BDFFB581B0EA
:1052C0001E4617460D46084600F04AF8002802D050
:1052D000112005B0F0BD0E4800F042F8040015D0D2
:1052E0000A98A0710622E01D0B99FAF7A1FE6580CD
:1052F0002771667101982070002060620C98E0812F
:105300000021284600F098FA0020E2E71520E0E7A7
:10531000FFFF000070B514460D46064600F020F869
:1053200000280BD0416A007900290CD0C20611D5A3
:1053300080070AD4002C08D0052070BD074886429B
:105340000AD0142070BDC006F6D5887EA84203D2CC
:105350000C2070BD0F2070BD002070BDFEFF00004E
:10536000084A002128234B439B185B88834203D1C2
:105370002820414388187047491C0906090EF1D0BE
:1053800000207047546FFF1F30B50B4C0B4B0021B2
:1053900028224A43D5186D88A54206D09A5C8242DD
:1053A00003D128204143C81830BD491C0906090E05
:1053B000EED0002030BD0000FFFF0000546FFF1F43
:1053C00010B500200B4C0C4B014628224243D2184A
:1053D0005480401C117100065162000EF5D0064A3F
:1053E000002028328300401CC0B2D1500528F9D3D8
:1053F00010BD0000FFFF0000546FFF1F0020074A90
:10540000014628234B439B181B79002B01D0401CDD
:10541000C0B2491C0906090EF3D07047546FFF1F34
:10542000074A00218B00D358002B05D0491CC9B274
:105430000529F7D31320704789005050002070478A
:105440007C6FFF1F10B5FFF78BFF040013D060883F
:10545000012100F0F1F9606A002801D0FAF74EFE50
:10546000282200212046FAF7FBFD0020C04360807F
:105470000020207110BD022010BD000010B50C46A8
:105480000649884206D0FFF76BFF002804D0007958
:10549000204201D0012010BD002010BDFEFF000001
:1054A0000748416B0806020F064842700A05120FB2
:1054B00082700A0B0902C270090F01717047000067
:1054C00000F00040ED6CFF1F097A0220C90600D5EC
:1054D00008207047FEB515460A7A0024089E9206F9
:1054E00001D50820FEBD0A78022A0AD0488913494E
:1054F000498D884203D1D9B2284600F06FF8204682
:10550000FEBD4A68177852781202BA180C4F92B250
:10551000BA42F4D101220192DBB200962A46FCF78E
:10552000C5F80400EBD1697828780902401880B2E8
:10553000012800D0002003490870E0E76850FF1FF1
:10554000022900008D6CFF1F10B50848FFF768FFA7
:10555000FFF7A6FF06490748FCF790F80448064AFB
:1055600006210830FCF704FA10BD00002D4A021194
:105570006050FF1FFFFF00001472021110B51521CB
:105580000020FAF787FEFF20F530FAF789FE10BDFC
:10559000F8B504460E4D23006878FAF75BFD061750
:1055A0000417171714170A4E00210523094AB61CC1
:1055B0005F1AF75D5754491CC9B20629F8D3022176
:1055C000FAF772FD02E00021FAF770FE2C70F8BDC8
:1055D0007C51FF1F6509FF1F70470000F0B58FB0B9
:1055E0000546002768460E460777142942D80A4622
:1055F000294608A8FAF71CFD08A8854C0178204622
:105600001130019020300090062978D008DC012963
:1056100010D0022936D0032972D0052908D193E091
:1056200007296ED07A480B38742957D075296DD068
:10563000692024E0774C607800281BD06878A77038
:1056400000F020FA0006000E6946087714D1032EF8
:1056500003D0FFF793FFFAF705FEA878012803D0DF
:10566000FFF78CFFFAF7FEFD012107A800F0F8F81C
:105670000120A0700FB0F0BD012107A843E06946EA
:105680000877F9E71422002102A8FAF7E9FC684636
:10569000077202ACC1208000611CFBF71DFB5C4857
:1056A0006030017900290AD0C278603101910092FE
:1056B0008378427858A1E01DFAF7FEFD07E0C17833
:1056C00000918378427857A1E01DFAF7F5FDE01DBF
:1056D000FAF7F8FD0830C1B202A814E00278761E8D
:1056E000B2422FD1002A2DD0691C401CFAF7ACFC25
:1056F000012827D14749487068460777BCE741E051
:1057000020E061E002E000F0ABF8B3E769780F2930
:1057100018D102780446002A14D00A2A12D8444824
:10572000029703970497059700683949019001A8EB
:105730000B390130521CFAF77BFC2078801CC1B277
:1057400001A8E0E705209AE710220021FAF788FC7B
:1057500008A9102201310098FAF76AFC1021601C98
:10576000FAF7B6FD2A481022213000210546FAF743
:1057700077FC2A46611C2F48FAF754FC1022294670
:10578000712019E0102200210198FAF769FC08A99C
:10579000102201310198FAF74BFC02AA2548019921
:1057A000FAF740FC102202A80099FAF74DFC0028F5
:1057B00005D01022611C722000F069F85AE7FFF74B
:1057C000DDFEFAF74FFD55E7114810224130002168
:1057D0000546FAF745FC08A9102201312846FAF7D8
:1057E00027FC02AA611C0198FAF71CFC084A02A9CE
:1057F000513214460F48FAF715FC1022294620466C
:10580000FAF722FC0028DAD0102221467320D3E7D1
:105810008D6CFF1F5C50FF1F5625642E25642E25BE
:10582000642563005625642E25642E25640000003F
:1058300010720211F86EFF1FF8B5084D0E460746AC
:105840000024A0002A58002A02D03146384690474A
:10585000641CE4B2052CF4D3F8BD00007C6FFF1F7C
:1058600030B5BFB00C460546F82200216846FAF76D
:10587000F7FB142C09D8684644802246294601A823
:10588000FAF7D6FB684600F0C1F83FB030BD70B5FE
:10589000BEB015460E460446F82200216846FAF7C7
:1058A000DFFB142D0CD8681C694648800C7101A8D8
:1058B0002A4631460130FAF7BBFB684600F0A6F8ED
:1058C0003EB070BDFFB581B00298FFF749FD0400FE
:1058D00069D00298354986008A59002A63D0136A34
:1058E0001820002B00D03420936A002B00D01430F5
:1058F000049B002B00D01C30516A002900D01630C8
:10590000FAF726FC05004ED018220021FAF7A8FB72
:105910002620FBF79DFC070000D12778D0202870B7
:10592000019868700A20A8700298A8800398A8714E
:105930001E482C4680591834006A002808D01B499C
:10594000AC60895920461C34096A1C22FAF770FBA6
:1059500016488059806A002808D01449EC6089599B
:1059600020461434896A1422FAF762FB049800284E
:1059700006D02C6120461C341C220499FAF758FBEF
:105980000A488159496A002906D06C61805916225B
:10599000416A2046FAF74CFBF8B22946FAF7B4FB05
:1059A0000298FCF7A5FE05B0F0BD00005C52FF1F99
:1059B000FFB581B01D46174614200E9EFAF7C8FBAE
:1059C000040020D0D0202070019860700520A070C5
:1059D000E770002D05D006222946201DFAF728FB86
:1059E00004E006220021201DFAF73AFB0A986081A4
:1059F0000B98A0810C98E0810D982082A674214616
:105A00000298FAF781FB05B0F0BD000038B50446F6
:105A100069460E48FBF760F96A460D491088FBF7A6
:105A20009FFF6A4611880B4A91420CD0C0070AD0EA
:105A30000748002248304089208068462146008877
:105A4000FCF702F938BD122038BD00000E0300003B
:105A50006050FF1FFFFF0000F8B506461C461546C4
:105A60000F460820FAF774FB010009D0D020087017
:105A70004E70062088708D808C713846FAF744FB92
:105A8000F8BD0000032803D9062801D0062070477E
:105A9000014948630020704700F0004010B50446FB
:105AA000084884420DD0012907D0022909D10121DB
:105AB0002046FFF7E3FC002803D103492046FBF70B
:105AC000DDFD10BDFEFF0000D450FF1F70B516466F
:105AD0000A7A00240498D20601D5082070BD002857
